000000002000DELOITTE TAX LLP                                                      400 W 15TH ST STE 700                                                                                                                                                               AUSTIN                                            TX                                                     78701      
000000002001MARVIN F POER & CO                                                    KEVIN KIRKPATRICK                                           8200 IH 10 STE 214                                                                                                      SAN ANTONIO                                       TX                                                     78230      
000000002002DUFF & PHELPS                                                                                                                     PO BOX 2629                                                                                                             ADDISON                                           TX                                                US   75001      
000000002003GEORGE MCELROY & ASSOC INC                                                                                                        1412 MAIN ST STE 1500                                                                                                   DALLAS                                            TX                                                     75202      
000000002004ARTERBURN & ASSOCIATES                                                P O BOX 572295                                                                                                                                                                      HOUSTON                                           TX                                                     772572295  
000000002005ROY A BUSBY & CO                                                                                                                  5617 BIG BEND TRL                                                                                                       GEORGETOWN                                        TX                                                     786335431  
000000002006MORRISON & HEAD LP                                                                                                                9430 RESEARCH BLVD STE 1-400                                                                                            AUSTIN                                            TX                                                     78759      
000000002007KEN E ANDREWS & CO                                                    1900 DALROCK RD                                                                                                                                                                     ROWLETT                                           TX                                                     75088      
000000002008KLEIN & BARENBLAT                                                     PROPERTY TAX SERVICES                                       PO BOX 790830                                                                                                           SAN ANTONIO                                       TX                                                     782790830  
000000002009A & A REALTY TAX CONSULTANTS INC                                      P O BOX 1189                                                                                                                                                                        DRIPPING SPRINGS                                  TX                                                     786201189  
000000002010PROPERTY TAX COUNSELORS                                                                                                           PO BOX 3075                                                                                                             MCKINNEY                                          TX                                                     75070      
000000002011PROPERTY TAX ASSESMENT                                                ADVISORS                                                    180 N LASALLE ST STE 3000                                                                                               CHICAGO                                           IL                                                     60601      
000000002012CHIP S ROSS                                                           3005 S 5TH ST                                                                                                                                                                       AUSTIN                                            TX                                                     78704      
000000002013ERNST & YOUNG LLP                                                                                                                 55 IVAN ALLEN JR BV STE 1000                                                                                            ATLANTA                                           GA                                                     30308      
000000002014ASSOCIATED PROPERTY TAX                                               310 EAST I 30 SUITE M100                                                                                                                                                            GARLAND                                           TX                                                     750434006  
000000002015PROPERTY TAX COUNSELORS                                               PO BOX 3075                                                                                                                                                                         MCKINNEY                                          TX                                                     75070      
000000002016BURNITT PROPERTY TAX ADVISORS                                         16840 BARKER SPRINGS STE 301                                                                                                                                                        HOUSTON                                           TX                                                     77084      
000000002017PROPERTY TAX COUNSELORS                                                                                                           PO BOX 3075                                                                                                             MCKINNEY                                          TX                                                     750708182  
000000002018CLARKE & COMPANY                                                      13201 NORTHWEST FWY #503                                                                                                                                                            HOUSTON                                           TX                                                     770406023  
000000002019COLLIERS INTERNATIONAL                                                PROPERTY TAX GROUP                                          ATTN: TERRY ORAHA                                           2 CORPORATE DR STE 300                                      SOUTHFIELD                                        MI                                                     48076      
000000002020COLVIN & ASSOCIATES                                                   18141 F M 315                                                                                                                                                                       PALESTINE                                         TX                                                     75803      
000000002021CONSOLIDATED TAX SER INC                                              P O BOX 741328                                                                                                                                                                      DALLAS                                            TX                                                     753741328  
000000002022EASLEY MCCALEB & ASSOC                                                1705 W NORTHWEST HIGHWAY                                    STE 125                                                                                                                 GRAPEVINE                                         TX                                                     76051      
000000002023TAX PRO INC                                                           % L B WALKER & ASSOC                                        13111 NORTHWEST FWY STE 125                                                                                             HOUSTON                                           TX                                                     77040      
000000002024BRECK BOSTWICK & ASSOC                                                PO BOX 201389                                                                                                                                                                       AUSTIN                                            TX                                                     787201389  
000000002025DELOITTE & TOUCHE LLP                                                 700 5TH AVE STE 4500                                                                                                                                                                SEATTLE                                           WA                                                     981045044  
000000002026VALUATION GROUP INC THE                                               935 WHITE PLAINS RD STE 203-A                                                                                                                                                       TRUMBULL                                          CT                                                     06611      
000000002027H L ERDMAN CORPORATION THE                                            ATTN: H L ERDMAN JR                                         6718 PAKBROOK BLVD                                                                                                      DALLAS                                            TX                                                     752354108  
000000002028CANTRELL MCCULLOCH INC                                                12750 MERIT DRIVE  STE 800                                                                                                                                                          DALLAS                                            TX                                                     752511214  
000000002029RYAN LLC - EL PASO                                                                                                                221 N KANSAS ST STE 2101                                                                                                EL PASO                                           TX                                                     79901      
000000002030MORRISON & HEAD - HOUSTON LLC                                                                                                     13430 NORTHWEST FWY STE 950                                                                                             HOUSTON                                           TX                                                     77040      
000000002031AD VALOREM ASSOCIATES INC                                             157 PROSPEROUS PLACE STE 2B                                                                                                                                                         LEXINGTON                                         KY                                                     40509      
000000002032DELOITTE & TOUCHE LLP                                                 PROPERTY TAX SERVICES                                       PO BOX 168688                                                                                                           IRVING                                            TX                                                     750168688  
000000002033HARDING & CARBONE INC                                                                                                             1235 NORTH LOOP WEST STE 205                                                                                            HOUSTON                                           TX                                                     77008      
000000002034KIRKWOOD & DARBY INC                                                  307 W 7TH ST STE 1110                                                                                                                                                               FORT WORTH                                        TX                                                     76102      
000000002035R E MCELROY LLC                                                       3609 SMITH BARRY RD STE 100                                                                                                                                                         ARLINGTON                                         TX                                                     76013      
000000002036C MEREDITH INC                                                        PROPERTY TAX CONSULTANTS                                    P O BOX 35688                                                                                                           DALLAS                                            TX                                                     752350688  
000000002037OSBORNE & HELMAN                                                      ATTN: JACK OWEN                                             301 CONGRESS AVE STE 1910                                                                                               AUSTIN                                            TX                                                     78701      
000000002038PROPERTY TAX ANALYSTS INC                                             P O BOX 1067                                                                                                                                                                        ADDISON                                           TX                                                     75218      
000000002039ELLEN GROSS                                                           910 LAVACA                                                                                                                                                                          AUSTIN                                            TX                                                     78701      
000000002040SAVAGE SAVAGE & BROWN                                                 P O BOX 22845                                                                                                                                                                       OKLAHOMA CITY                                     OK                                                     73123      
000000002041TULLY & COMPANY                                                       P O BOX 630764                                                                                                                                                                      IRVING                                            TX                                                     750630764  
000000002042THE AEGIS GROUP                                                                                                                   1102 18TH AVE SOUTH                                                                                                     NASHVILLE                                         TN                                                     37212      
000000002043MARVIN F POER & CO                                                                                                                P O BOX 802206                                                                                                          DALLAS                                            TX                                                     753802206  
000000002044TAYLOR ASSET CONSULTANTS                                              10500 NORTHWEST FREEWAY STE 215                                                                                                                                                     HOUSTON                                           TX                                                     77092      
000000002045ARTHUR P VELTMAN & ASSOC INC                                                                                                      1017 N MAIN AVE STE 201                                                                                                 SAN ANTONIO                                       TX                                                     78212      
000000002046MARVIN F POER & COMPANY                                               13201 NORTHWEST FREEWAY   STE 550                                                                                                                                                   HOUSTON                                           TX                                                     77040      
000000002047VALUEBASE                                                                                                                         4343 CARTER CREEK PKWY STE 115                                                                                          BRYAN                                             TX                                                     77802      
000000002048L B WALKER & ASSOC INC                                                                                                            13111 NORTHWEST FREEWAY STE 125                                                                                         HOUSTON                                           TX                                                     770406321  
000000002049TAX REMEDY INC                                                                                                                    2413 GREENLAWN PARKWAY                                                                                                  AUSTIN                                            TX                                                     78757      
000000002050DUDLEY L VEAL III                                                     P O BOX 2707                                                                                                                                                                        HUMBLE                                            TX                                                     77347      
000000002051POPP HUTCHESON PLLC                                                                                                               1301 SOUTH MOPAC STE 430                                                                                                AUSTIN                                            TX                                                     78746      
000000002052DELOITTE & TOUCHE LLP                                                 PO BOX 460049                                                                                                                                                                       HOUSTON                                           TX                                                     77056      
000000002053THROWER DESIGN                                                        ATTN A RON THROWER                                          4608 S LAMAR BLVD                                                                                                       AUSTIN                                            TX                                                     787451304  
000000002054MARCZYNSKI BRIAN                                                      248 ADDIE ROY RD STE C200                                                                                                                                                           AUSTIN                                            TX                                                     78746      
000000002055GARLAND O'DAY & ASSOC, INC                                            C/O O'DAY HARRISON GRANT                                    PO BOX 16598                                                                                                            FORT WORTH                                        TX                                                     76162      
000000002056BURKE AND ASSOCIATES                                                  3336 EAST 32ND ST  STE 217                                                                                                                                                          TULSA                                             OK                                                     74135      
000000002057PROPERTY TAX CONTROL INC                                              P O BOX 720909                                                                                                                                                                      DALLAS                                            TX                                                     75372      
000000002058DOUG MORGAN & CO INC                                                                                                              PO BOX 773                                                                                                              MANSFIELD                                         TX                                                     76063      
000000002059PROPERTY TAX MANAGEMENT LLC                                           P O BOX 75007                                                                                                                                                                       MEMPHIS                                           TN                                                     38175      
000000002060PROPERTY TAX COUNSELORS                                               PO BOX 3075                                                                                                                                                                         MCKINNEY                                          TX                                                     75070      
000000002061LAFFERTY DEBBIE                                                       31356 VIA COLINAS                                                                                                                                                                   WESTLAKE VILLAGE                                  CA                                                     91362      
000000002062BALD EAGLE CONSULTING INC                                             % THOMAS A SISLOW CFP                                       P O BOX 521                                                                                                             GURNEE                                            IL                                                     600310521  
000000002063DUCHARME MCMILLEN & ASSOC. INC                                                                                                    12710 RESEARCH BLVD STE 305                                                                                             AUSTIN                                            TX                                                     787594380  
000000002064VERNON SMITH ASSOCIATES                                               P O BOX 810691                                                                                                                                                                      DALLAS                                            TX                                                     753810691  
0000000020657-11 INCORPORATED                                                     P O BOX 711                                                                                                                                                                         DALLAS                                            TX                                                     752210711  
000000002066H WILLIAM BEARE JR                                                    1001 REBECCA DR                                                                                                                                                                     AUSTIN                                            TX                                                     787583930  
000000002067PROPERTY ASSESSMENT SERVICES                                          309 SUMMIT ST                                                                                                                                                                       ASHEVILLE                                         NC                                                     288032724  
000000002068DELINO JODY C                                                         2003 WAPATO COVE                                                                                                                                                                    ROUND ROCK                                        TX                                                     78664      
000000002069JERRY W PRICER & CO INC                                               P O BOX 11426                                                                                                                                                                       FORT WORTH                                        TX                                                     76110      
000000002070M M MASON & COMPANY LLC                                               5700 NORTHWEST CENTRAL DR STE 120                                                                                                                                                   HOUSTON                                           TX                                                     77092      
000000002071HALL & ASSOCIATES CPA                                                 PMB #192                                                    202 WALTON WAY STE 192                                                                                                  CEDAR PARK                                        TX                                                     78613      
000000002072FRANK ASSOCIATES INC                                                  ATTN CHRIS FRANK                                            22136 WESTHEIMER PKWY STE 520                                                                                           KATY                                              TX                                                     77450      
000000002073INDUSTRIAL VALUATION SERVICES                                         ATTN: LUCYANN OLLIER                                        P O BOX 92108                                                                                                           AUSTIN                                            TX                                                     78709      
000000002074TAX MANAGEMENT GROUP                                                  2066 POPE CITY RD                                                                                                                                                                   JEFFERSON                                         TX                                                     75657      
000000002075WESTMINISTER FALCON/TRINITY LP                                        % GRIFFIN JUBAN PROPERTIES                                  1776 YORKTOWN STE 850                                                                                                   HOUSTON                                           TX                                                     77056      
000000002076MULLEN CONSULTING LLC                                                 LAURA A MULLEN CPA                                          1922 LEXINGTON ST                                                                                                       HOUSTON                                           TX                                                     770984220  
000000002077ACCORDING TO VALUE LTD                                                P O BOX 181313                                                                                                                                                                      ARLINGTON                                         TX                                                     760961313  
000000002078ROBERT A SHAW JR                                                      P O BOX 4372                                                HOUSTON TX                                                                                                                                                                                                                                  
000000002079TRUE TAX MANAGEMENT CORP                                              % DALE R ARMBRUSTER                                         12141 ADMIRALS POINTE CIRCLE                                                                                            INDIANAPOLIS                                      IN                                                     46236      
000000002080AD VALOREM TAX                                                        REPRESENTATIVES                                             P O BOX 210917                                                                                                          DALLAS                                            TX                                                     752110917  
000000002081PARADIGM TAX GROUP                                                    13231 CHAMPION FOREST DR STE 310                                                                                                                                                    HOUSTON                                           TX                                                     770692648  
000000002082DELOITTE & TOUCHE LLP                                                 P O BOX 43890                                                                                                                                                                       DETROIT                                           MI                                                     482430890  
000000002083SCHMIDT DICK                                                          P O BOX 50187                                                                                                                                                                       AUSTIN                                            TX                                                     787630187  
000000002084G W PASIER & ASSOCIATES                                               11320 S KOLBE CIRCLE #100                                                                                                                                                           CYPRESS                                           TX                                                     77429      
000000002085RYAN LLC - DALLAS 12                                                  THREE GALLERIA TOWER                                        13155 NOEL RD 12 FLR LB 72                                                                                              DALLAS                                            TX                                                     752405090  
000000002086HAROLD N ZAVALNEY                                                     P O BOX 10813                                                                                                                                                                       AUSTIN                                            TX                                                     787661813  
000000002087HARRISON TAX CONSULTANTS                                              4803 GARDENIA TR                                                                                                                                                                    PASADENA                                          TX                                                     77505      
000000002088JERRY LEWIS CPA                                                       9500 ARBORETUM BLVD STE 120                                                                                                                                                         AUSTIN                                            TX                                                     78759      
000000002089UNITED PARAMOUNT TAX GROUP INC                                        STE 310                                                     4025 WOODLAND PARK BLVD                                                                                                 ARLINGTON                                         TX                                                     76013      
000000002090AD VALOREM ASSOC INC                                                  306 GAY STREET #210                                                                                                                                                                 NASHVILLE                                         TN                                                     37201      
000000002091MOYMAHAN TERRY                                                        54 CHICON ST                                                                                                                                                                        AUSTIN                                            TX                                                     78702      
000000002092PROPERTY TAX ADVISORS INC                                             16840 BARKER SPRINGS RD                                     SUITE 301                                                                                                               HOUSTON                                           TX                                                     770848419  
000000002093REAL TAX RESEARCH                                                                                                                 2631 GERONIMO TRAIL                                                                                                     AUSTIN                                            TX                                                     78734      
000000002094BAWCOM DAVID ROSS                                                                                                                 PO BOX 140025                                                                                                           AUSTIN                                            TX                                                     78714      
000000002095LAAS L BRYAN                                                          ESTATE LEWIS BRYAN LAAS                                     100 CONGRESS AVE STE 1300                                                                                               AUSTIN                                            TX                                                     787012744  
000000002096SMITHE WALTER G                                                                                                                   PO BOX 356                                                                                                              PFLUGERVILLE                                      TX                                                     78691035656
000000002097COMPTON & ASSOCIATES, LLP                                             2000 POWERS FERRY RD                                        SUITE 200                                                                                                               MARIETTA                                          GA                                                     300679442  
000000002098LA QUINTA PROPERTIES INC                                              ATTN: ALLAN I FORSYTHE                                      P O BOX 2636                                                                                                            SAN ANTONIO                                       TX                                                     782992636  
000000002099LISTON VANCE S W B TELEPHONE                                          288 S AKARD ST STE 2420                                                                                                                                                             DALLAS                                            TX                                                     752024214  
000000002100EQUITY SERVICES                                                       P O BOX 64246                                                                                                                                                                       LUBBOCK                                           TX                                                     79464      
000000002101HEMMASI MAJID                                                         2300 CHESWICK CT                                                                                                                                                                    AUSTIN                                            TX                                                     78746      
000000002102JOHN C BLAZIER AGENT                                                  BLAZIER CHRISTENSEN BIGELOW & VIRR                          901 S MO PAC EXPY STE 200                                                                                               AUSTIN                                            TX                                                     787465759  
000000002103ANDY LACY                                                             P O BOX 2026                                                                                                                                                                        CYPRESS                                           TX                                                     774102026  
000000002104GOODRICH AD VALOREM SERVICES                                          3021 CITRUS CIR                                             STE 260                                                                                                                 WALNUT CREEK                                      CA                                                     945982675  
000000002105HOLFORD GROUP                                                         DEVELOPMENT CONSULTANTS                                     4833 SPICEWOOD SPRGS RD SUITE 103                                                                                       AUSTIN                                            TX                                                     78759      
000000002106NATIONWIDE CONSULTING CO                                              P O BOX 548                                                                                                                                                                         GLEN ROCK                                         NJ                                                     07452      
000000002107ADVALOREMTAX.NET                                                      811 BRADFORD AVE STE 4A                                                                                                                                                             KEMAH                                             TX                                                     775652900  
000000002108ALLAIRE JOAN                                                          410 E 5TH #307                                                                                                                                                                      AUSTIN                                            TX                                                     78701      
000000002109R B MELLANDER & ASSOCIATES                                                                                                        800 E NORTHWEST HWY STE 204                                                                                             MT PROSPECT                                       IL                                                     60056      
000000002110J E RILEY & CO LP                                                                                                                 PO BOX 2388                                                                                                             CYPRESS                                           TX                                                     774102388  
000000002111JOE COLLEY                                                            905 C COMMERCE ST                                                                                                                                                                   LOCKHART                                          TX                                                     78644      
000000002112DELOITTE & TOUCHE LLP                                                 181 BAY ST STE 1400                                                                                                                                                                 2V1                                                                                                                 
000000002113SUE EDWARDS                                                           P O BOX 28123                                                                                                                                                                       AUSTIN                                            TX                                                     787558123  
000000002114A G TRIPLETT & ASSOC                                                  PROPERTY TAX CONSULTANTS                                    P O BOX 680126                                                                                                          SAN ANTONIO                                       TX                                                     782680126  
000000002115PAUL W. HUDSPETH                                                      7100 WHISPERING OAKS DR                                                                                                                                                             AUSTIN                                            TX                                                     787455275  
000000002116PRICEWATERHOUSECOOPERS LLP                                            ATTN CHIP TWOMEY                                            1201 LOUSIANNA STE 2900                                                                                                 HOUSTON                                           TX                                                     77002      
000000002117CAREY LEGETT III                                                      8307 BAGBY DRIVE                                                                                                                                                                    AUSTIN                                            TX                                                     78724      
000000002118SHIVE LARRY                                                           P O BOX 4370                                                                                                                                                                        LAGO VISTA                                        TX                                                     78645      
000000002119MCINTOSH & SCOTT                                                      P O BOX 2567                                                                                                                                                                        GEORGETOWN                                        TX                                                     786272567  
000000002120MADISON THOMAS                                                        P O BOX 150365                                                                                                                                                                      AUSTIN                                            TX                                                     787150365  
000000002121TEXAS UTILITIES SERVICE                                               P O BOX 219071                                                                                                                                                                      DALLAS                                            TX                                                     752219071  
000000002122DE MAIO DENNIS F                                                      1809 W ANDERSON LN                                                                                                                                                                  AUSTIN                                            TX                                                     787571337  
000000002123PROPERTY TAX CONTROL INC                                              P O BOX 720909                                                                                                                                                                      DALLAS                                            TX                                                     753720909  
000000002124HUNT PETROLEUM CORP                                                   AD VALOREM TAX DEPT                                         1601 ELM ST STE 4900                                                                                                    DALLAS                                            TX                                                     75201      
000000002125PRICEWATERHOUSECOOPERS LLP                                            P O BOX 131211                                                                                                                                                                      DALLAS                                            TX                                                     75313      
000000002126MATTOX TERRELL & ASSOCIATES                                           1614 AVENUE B                                                                                                                                                                       KATY                                              TX                                                     77493      
000000002127TAX RESULTS/USA                                                                                                                   PO BOX 1522                                                                                                             SULPHUR SPRINGS                                   TX                                                     75483      
000000002128HARRISON-PEARSON ASSOCIATES INC                                       4014 MEDICAL PKWY #100                                                                                                                                                              AUSTIN                                            TX                                                     787563703  
000000002129REO TAX CONSULTING INC                                                P O BOX 831088                                                                                                                                                                      RICHARDSON                                        TX                                                     750831088  
000000002130SIERRA & TAYLOR INC                                                   15950 N DALLAS PARKWAY STE 400                                                                                                                                                      DALLAS                                            TX                                                     75248      
000000002131COMPLEX PROPERTY ADVISORS CORP                                        (CPAC)                                                      P O BOX 92129                                                                                                           SOUTHLAKE                                         TX                                                     76092      
000000002132QUINTIN AND ASSOCIATES                                                P O BOX 801707                                                                                                                                                                      DALLAS                                            TX                                                     75380      
000000002133PRICEWATERHOUSECOOPERS LLP                                            ATTN PETER FERN                                             P O BOX 2973                                                                                                            BOSTON                                            MA                                                     021012973  
000000002134RANDALL RUDOLPH & ASSOC                                               PROPERTY TAX CONSULTANTS                                    P O BOX 610026                                                                                                          DALLAS                                            TX                                                     752610026  
000000002135WILSON JAMES E                                                        440 BENMAR STE 3000                                                                                                                                                                 HOUSTON                                           TX                                                     77060      
000000002136JOEL H KLEIN & ASSOCIATES                                                                                                         14439 NW MILITARY HWY STE 108                                                                                           SAN ANTONIO                                       TX                                                     78213      
000000002137CARL DAYWOOD                                                          600 SABINE SUITE 200                                                                                                                                                                AUSTIN                                            TX                                                     78701      
000000002138PROPERTY TAX GROUP                                                    ALLAN NUTT                                                  5121 BEE CAVES ROAD STE 202                                                                                             AUSTIN                                            TX                                                     78746      
000000002139DELOITTE & TOUCHE LLP                                                 INDUSTRIAL DIVISION                                         400 W 15TH ST STE 1700                                                                                                  AUSTIN                                            TX                                                     787011648  
000000002140BDO SEIDMAN LLP                                                       ATTN: MS LYNN THOMPSON                                      700 N PEARL ST STE 2000                                                                                                 DALLAS                                            TX                                                     75201      
000000002141PDS TAX SERVICES                                                      P O BOX 13519                                                                                                                                                                       ARLINGTON                                         TX                                                     76094      
000000002142BURR WOLFF & ASSOCIATES                                               1420 W MOCKINGBIRD LN                                       STE 575                                                                                                                 DALLAS                                            TX                                                     752474932  
000000002143PROFESSIONAL PROPERTY TAX CONSULTANTS                                 P O BOX 690121                                                                                                                                                                      HOUSTON                                           TX                                                     772690121  
000000002144AD VALOREM TAX MANAGEMENT LLC                                                                                                     1988 WILCREST DR STE E                                                                                                  HOUSTON                                           TX                                                     77042      
000000002145AMERICAN AD VALOREM                                                   TAX CONSULTANTS INC                                         P O BOX 6330                                                                                                            CORPUS CHRISTI                                    TX                                                     784666330  
000000002146POWERS AND COMPANY                                                    MICHAEL W POWERS                                            P O BOX 1683                                                                                                            ROUND ROCK                                        TX                                                     78680      
000000002147J S & D CORP                                                                                                                      PO BOX 219115                                                                                                           HOUSTON                                           TX                                                     77218      
000000002148TRTC/ TEXAS REAL ESTATE                                               TAX CONSULTANTS                                             BILL & KAY WALTON                                           RT 1 BOX 249A                                               LEXINGTON                                         TX                                                     789479762  
000000002149JOHN D BRIGHT                                                         919 CONGRESS AV STE 620                                                                                                                                                             AUSTIN                                            TX                                                     78701      
000000002150NATIONAL PROPERTY TAX MGMT INC                                        P O BOX 42165                                                                                                                                                                       HOUSTON                                           TX                                                     772422165  
000000002151HELLON & ASSOCIATES                                                   P O BOX 38450                                                                                                                                                                       TUCSON                                            AZ                                                     857406450  
000000002152PROPERTY VALUE ADVISORS                                                                                                           PO BOX 29297                                                                                                            AUSTIN                                            TX                                                     787556297  
000000002153RINK JAMES WILSON                                                     P O BOX 26957                                                                                                                                                                       AUSTIN                                            TX                                                     787550957  
000000002154DAVID A YOUNG & ASSOCIATES                                                                                                        P O BOX 461312                                                                                                          SAN ANTONIO                                       TX                                                     78246      
000000002155PROPERTY TAX SERVICE CO                                               P O BOX 90729                                                                                                                                                                       HOUSTON                                           TX                                                     77290      
000000002156DELOITTE & TOUCHE LLP                                                 %PROPERTY TAX SERVICES GROUP                                PO BOX 168688                                                                                                           IRVING                                            TX                                                     750168688  
000000002157CHARLOTTE LONDON                                                                                                                  1306 WINSTED LN                                                                                                         AUSTIN                                            TX                                                     78703      
000000002158PRICEWATERHOUSE COOPERS LLP                                           %PWC PROPERTY TAX GROUP                                     10 TENTH ST STE NE STE 1400                                                                                             ALTANTA                                           GA                                                     303093906  
000000002159ASSOCIATED TAX APPRAISERS                                                                                                         PO BOX 91119                                                                                                            AUSTIN                                            TX                                                     78709      
000000002160AD VALOREM TAX INC                                                    1931 ROHLWING RD STE A                                                                                                                                                              ROLLING MEADOWS                                   IL                                                     600081360  
000000002161NATIONAL PROPERTY TAX MGMT INC                                        P O BOX 42165                                                                                                                                                                       HOUSTON                                           TX                                                     77242      
000000002162PROPERTY TAX ADVOCATES INC                                            1303 W WALNUT HILL LN STE 260                                                                                                                                                       IRVING                                            TX                                                     75038      
000000002163DECLARATION SERVICES                                                                                                              2025 GATEWAY PLACE STE 228                                                                                              SAN JOSE                                          CA                                                     95110      
000000002164IMATION CO LP                                                         ATTN: CHUCK MYERS                                           912 WEST ANDERSON LN                                                                                                    AUSTIN                                            TX                                                     78757      
000000002165ARTHUR ANDERSON LLP                                                   633 W 5TH ST                                                                                                                                                                        LOS ANGELES                                       CA                                                     90071      
000000002166AUSTIN PROPERTY TAX                                                   CONSULTANTS                                                 12401 BLUESTONE CIRCLE                                                                                                  AUSTIN                                            TX                                                     78758      
000000002167TEXAS PROPERTY TAX CONSULTANTS                                        P O BOX 535326                                                                                                                                                                      GRAND PRAIRIE                                     TX                                                     750535326  
000000002168REPUBLIC REAL ESTATE TAX SERVICES CORP                                REPUBLIC ASSET CONSULTANTS                                  PO BOX 42074                                                                                                            AUSTIN                                            TX                                                     78704      
000000002169INTERNATIONAL APPRAISAL COMPANY                                       110 PLEASANT AVE                                                                                                                                                                    UPPER SADDLE RIVER                                NJ                                                     07458      
0000000021703W PROPERTY TAX SERVICES                                              PO BOX 53126                                                                                                                                                                        LUBBOCK                                           TX                                                     79453      
000000002171CARTER BETTY JO                                                       ATTN PROP TAXES                                             P O BOX 5308                                                                                                            JONESTOWN                                         TX                                                     78645      
000000002172ELDER & ASSOCIATES                                                    % JOHN ELDER                                                P O BOX 130226                                                                                                          HOUSTON                                           TX                                                     77219      
000000002173MORRISON & HEAD LP                                                    P O BOX 1888                                                                                                                                                                        BOERNE                                            TX                                                     780066888  
000000002174FLANAGAN & BILTON,  LLC                                                                                                           1 N LASALLE ST STE 2100                                                                                                 CHICAGO                                           IL                                                     60602      
000000002175NAHDIAH HOANG                                                         5015 PLACID PL                                                                                                                                                                      AUSTIN                                            TX                                                     787315017  
000000002176HARRISON-DOGGETT                                                      1009 C STREET, STE 200                                                                                                                                                              FLORESVILLE                                       TX                                                     781142223  
000000002177JILL GREEN                                                            P O DRAWER 310                                                                                                                                                                      BASTROP                                           TX                                                     78602      
000000002178T K CONSULTING ENGR                                                   THOMAS W KAM                                                7621 SPICEWOOD SPRINGS RD                                                                                               AUSTIN                                            TX                                                     787597605  
000000002179MOSS ADAMS LLP                                                        % RAYMOND BLATT                                             11766 WILSHIRE BLVD STE 900                                                                                             LOS ANGELES                                       CA                                                     90025      
000000002180AMERICAN PROPERTY SERVICES                                            P O BOX 496689                                                                                                                                                                      GARLAND                                           TX                                                US   750496689  
000000002181SMITH BARRY                                                           CAMBRIDGE TOWER                                             1801 LAVACA  ST                                                                                                         AUSTIN                                            TX                                                     787011341  
000000002182PRICEWATERHOUSECOOPERS LLP                                            400 CAMPUS DRIVE 4TH FLR                                    P O BOX 988                                                                                                             FLORHAM PARK                                      NJ                                                     079329948  
000000002183TEXAS INCOME PROPERTY                                                 105 W RIVERSIDE DR #110                                                                                                                                                             AUSTIN                                            TX                                                     787041246  
000000002184COMMERCIAL TAX NETWORK                                                STE 200                                                     3730 CYPRESS CREEK PKWY                                                                                                 HOUSTON                                           TX                                                     770683508  
000000002185SOUTHLAND PROPERTY TAX                                                 CONSULTANTS INC                                            201 MAIN ST STE 1460                                                                                                    FORT WORTH                                        TX                                                     761025323  
000000002186VAN HOUTEN  & ASSOCIATES                                                                                                          1517 E PALM VALLEY BLVD                                                                                                 ROUND ROCK                                        TX                                                     786644552  
000000002187EQUITY PROPERTY TAX GROUP LLC                                         C/O  EQUITY OFFICE                                          PROPERTY TAX DEPARTMENT                                     PO BOX A-3879                                               CHICAGO                                           IL                                                     60690      
000000002188PROPERTY TAX SERVICE CO                                               2351 W NORTHWEST HWY STE 2203                                                                                                                                                       DALLAS                                            TX                                                     75220      
000000002189EQUITAX PROPERTY CONSULTANTS LTD                                      11000 RICHMOND AV STE 350                                                                                                                                                           HOUSTON                                           TX                                                     77042      
000000002190CHARLES E BROWN                                                       818 W 10TH ST                                                                                                                                                                       AUSTIN                                            TX                                                     78701      
000000002191NEWTON REAL ESTATE & PROPERTY                                         TAX SERVICES                                                P O BOX 331631                                                                                                          FORT WORTH                                        TX                                                     76163      
000000002192P E PENNINGTON & CO                                                   4300 MARSH RIDGE RD STE 104                                                                                                                                                         CARROLLTON                                        TX                                                     750104449  
000000002193SALT GROUP THE                                                        PTCR                                                        PO BOX 2250                                                                                                             UNIVERSAL CITY                                    TX                                                     78148      
000000002194SMITH WILLIAM R PHD                                                   4903 BULL MOUNTAIN COVE                                                                                                                                                             AUSTIN                                            TX                                                     787462402  
000000002195MCCOLLUM CONSULTING                                                                                                               5608 MALVEY AVE STE 110                                                                                                 FORT WORTH                                        TX                                                     76107      
000000002196INDUSTRIAL COMPLEX PROPERTY GROUP                                     6200 UTSA BLVD BLDG 2                                                                                                                                                               SAN ANTONIO                                       TX                                                     78249      
000000002197WINSTEAD SECHREST & MINICK                                            401 CONGRESS AVE STE 2100                                                                                                                                                           AUSTIN                                            TX                                                     78701      
000000002198ASSESSMENT TECHNOLOGIES INC                                                                                                       40 NE LOOP 410 STE 607                                                                                                  SAN ANTONIO                                       TX                                                     78216      
000000002199STRATEGIS ASSET VALUATION                                             & MANAGEMENT INC                                            P O BOX 59365                                                                                                           SCHAUMBURG                                        IL                                                     601590365  
000000002200RILEY BOBBI                                                           P O BOX 9902                                                                                                                                                                        AUSTIN                                            TX                                                     787660902  
000000002201COMMUNICATIONS MEDIA TAX                                              SERVICES INC                                                ATTN: A L SISK                                              P O BOX 68                                                  LEXINGTON                                         TX                                                     789470068  
000000002202WIGGINS CANDICE J                                                     P O BOX 203158                                                                                                                                                                      AUSTIN                                            TX                                                     78720      
000000002203BENCHMARK AD VALOREM                                                  P O BOX 700925                                                                                                                                                                      SAN ANTONIO                                       TX                                                     78270      
000000002204JOSEPH C SANSONE COMPANY                                              2950 N LOOP W, #500                                                                                                                                                                 HOUSTON                                           TX                                                US   77092      
000000002205HOMERO CARRILLO JR                                                    1800 BERING STE 430                                                                                                                                                                 HOUSTON                                           TX                                                     77057      
000000002206PRICEWATERHOUSECOOPERS LLP                                            PROPERTY TAX GROUP                                          1751 PINNACLE DRIVE                                                                                                     MC LEAN                                           VA                                                     221023811  
000000002207DELOITTE & TOUCHE LLP                                                 2235 FARADAY AVE STE O                                                                                                                                                              CARLSBAD                                          CA                                                     920087208  
000000002208MIMS M MICHAEL                                                        P O BOX 700215                                                                                                                                                                      SAN ANTONIO                                       TX                                                     78270      
000000002209TRANSWESTERN CONSULTANTS                                              P O BOX 969                                                                                                                                                                         RED OAK                                           TX                                                     751540969  
000000002210MURPHEY REAL ESTATE SERVICES                                          % LYLE B MURPHEY                                            P O BOX 340156                                                                                                          AUSTIN                                            TX                                                     787340156  
000000002211COLMENERO RUDY R                                                      P O BOX 684264                                                                                                                                                                      AUSTIN                                            TX                                                     78768      
000000002212A T S TAX SERVIC                                                      % JEFF STEWART                                              3103 THOUSAND OAK DRIVE                                                                                                 AUSTIN                                            TX                                                     78746      
000000002213PROPERTY TAX SERVICE CO                                               P O BOX 14656                                                                                                                                                                       HOUSTON                                           TX                                                     772214656  
000000002214CORPORATE TAX MANAGEMENT INC                                          6115 CAMP BOWIE BLVD STE 152                                                                                                                                                        FORT WORTH                                        TX                                                     76116      
000000002215GREEN JOHN O                                                          P O BOX 3694                                                                                                                                                                        AUSTIN                                            TX                                                     78764      
000000002216MCNABB SCOTT J                                                        3316 BEE CAVES RD STE C                                                                                                                                                             AUSTIN                                            TX                                                     78746669099
000000002217INDUSTRY CONSULTING GROUP                                                                                                         PO BOX 35605                                                                                                            DALLAS                                            TX                                                     752350605  
000000002218CAROLYN J SMITH                                                       1209 BOENIG DR                                                                                                                                                                      NEW BRAUNFELS                                     TX                                                     781309401  
000000002219D ALAN BOWLBY & ASSOC                                                 P O BOX 1067                                                                                                                                                                        ADDISON                                           TX                                                     75001      
000000002220SECRETARY OF HOUSING AND                                              URBAN DEVELOPMENT (HUD)                                     615 E HOUSTON ST STE 347                                                                                                SAN ANTONIO                                       TX                                                     782053625  
000000002221HARTLEY EUGENE E                                                      P O BOX 1059                                                3190 FM 471 NORTH                                                                                                       CASTROVILLE                                       TX                                                     78009      
000000002222MORRISON PROPERTIES                                                   % CHARLES MORRISON                                          1717 W 6TH STE 360                                                                                                      AUSTIN                                            TX                                                     78703      
000000002223NELSON & WALLERY LTD                                                  N47213 ELLENBERGER LANE                                                                                                                                                             ELEVA                                             WI                                                     54738      
000000002224JAMES E FAUST INC                                                     P O BOX 12637                                                                                                                                                                       HOUSTON                                           TX                                                     77217      
000000002225SHAPIRO EDENS & COOK                                                  ATTN: CONNIE J CARLEY                                       2200 ONE AMERICAN CENTER                                    600 CONGRESS AVENUE                                         AUSTIN                                            TX                                                     78701      
000000002226ERNST & YOUNG LLP                                                     ONE VICTORY PARK                                            2323 VICTORY AVE STE 2000                                                                                               DALLAS                                            TX                                                     752197686  
000000002227BURR WOLFF LP                                                         NC1-021-03-09                                               401 N TRYON ST                                                                                                          CHARLOTTE                                         NC                                                     28255      
000000002228PROPERTY TAX SERVICE COMPANY                                          P O BOX 543185                                                                                                                                                                      DALLAS                                            TX                                                     753543185  
000000002229PARK LARRY                                                            2121 SOUTH LAMAR #104                                                                                                                                                               AUSTIN                                            TX                                                     78704      
000000002230ANDERSON & COMPANY                                                    1200 ROSS AVE STE 110                                                                                                                                                               DALLAS                                            TX                                                     75202      
000000002231WILLIAM L CORBIN                                                      1011 CHARLOTTE                                                                                                                                                                      STEPHENVILLE                                      TX                                                     76401      
000000002232ARMSTRONG BERYL K RPTC                                                P O BOX 1251                                                                                                                                                                        DRIPPING SPRINGS                                  TX                                                     78620      
000000002233CYNTHIA RILEY(REALTOR)                                                1613 S CAPOF TX HY S STE 100                                                                                                                                                        AUSTIN                                            TX                                                     78746      
000000002234MCCALL ROBIN                                                          1135 WEST 6TH ST                                                                                                                                                                    AUSTIN                                            TX                                                     78703      
000000002235FULBRIGHT & JAWORSKI                                                  300 CONVENT STREET #2200                                                                                                                                                            SAN ANTONIO                                       TX                                                     78205      
000000002236PACE PROPERTY TAX SERVICES                                            P O BOX 3395                                                                                                                                                                        HUMBLE                                            TX                                                     77347      
000000002237COMMERCIAL VALUATION                                                  CONSULTANTS                                                 5535 BENT TREE FOREST DR APT 416                                                                                        DALLAS                                            TX                                                     752483471  
000000002238H E BUTT GROCERY CO                                                   % MICHAEL M MIMS                                            P O BOX 839999                                                                                                          SAN ANTONIO                                       TX                                                     782833999  
000000002239ERNST & YOUNG LLP                                                     401 CONGRESS AVE STE 1800                                                                                                                                                           AUSTIN                                            TX                                                     78701      
000000002240GELLER & COMPANY LLC                                                                                                              909 THIRD AVE                                                                                                           NEW YORK                                          NY                                                     10022      
000000002241PROPERTY TAX CONTROL COMPANY                                          P O BOX 720906                                                                                                                                                                      DALLAS                                            TX                                                     75372      
000000002242HUDSON RAYMOND                                                        1324 N FAIRFAX AVE                                                                                                                                                                  LOS ANGELES                                       CA                                                     90046      
000000002243MICHAEL E HASTY & ASSOC                                               P O BOX 530786                                                                                                                                                                      GRAND PRAIRIE                                     TX                                                     75053      
000000002244SWBC AD VALOREM TAX ADVISORS                                          ADAMS & POLUNSKY                                            9311 SAN PEDRO AVE STE 725                                                                                              SAN ANTONIO                                       TX                                                     78216      
000000002245PROPERTY TAX ASSOCIATES                                               P O BOX 162321                                                                                                                                                                      AUSTIN                                            TX                                                     787162321  
000000002246AD VALOREM ADVISORS                                                                                                               527 GRANBERRY ST                                                                                                        HOUSTON                                           TX                                                     77007      
000000002247JACKSON WALKER L L P                                                  % STEVEN MOORE                                              100 CONGRESS AVE STE 1100                                                                                               AUSTIN                                            TX                                                     78701      
000000002248AD VALOREM SERVICES CO                                                                                                            1331 WEST WALL ST                                                                                                       GRAPEVINE                                         TX                                                     76051      
000000002249IRBY M FORD & ELIZABETH TYNER                                                                                                     PO BOX 513                                                                                                              PFLUGERVILLE                                      TX                                                     786910513  
000000002250TISDALE OLAN                                                          590 DIETRICH RD                                                                                                                                                                     FREDERICKSBURG                                    TX                                                     78624      
000000002251MORSHED TAREK                                                         P O BOX 685306                                                                                                                                                                      AUSTIN                                            TX                                                     78768      
000000002252REALTRUST SERVICES INC                                                P O BOX 27335                                                                                                                                                                       AUSTIN                                            TX                                                     78755      
000000002253TOM SHEEHAN                                                           1811 WOODVINE CIRCLE                                                                                                                                                                SAN ANTONIO                                       TX                                                     78232      
000000002254FREDERICK & HORNSBY INC                                               1717 WEST 6TH STE 250                                                                                                                                                               AUSTIN                                            TX                                                     78703      
000000002255REAL PROPERTY TAX CONSULTANTS                                         P O BOX 671375                                                                                                                                                                      DALLAS                                            TX                                                     753671375  
000000002256TEXAS RESIDENTIAL PROPERTIES                                          2619-B JONES RD                                                                                                                                                                     AUSTIN                                            TX                                                     78745      
000000002257AD VALOREM TAX INC                                                    861 S VILLAGE OAKS DR STE 204                                                                                                                                                       COVINA                                            CA                                                     917243645  
000000002258DELOITTE & TOUCHE                                                     350 SOUTH GRAND AVE 5TH FLR                                                                                                                                                         LOS ANGELES                                       CA                                                     900713462  
000000002259STRAUS AND COMPANY                                                    11072 COUNTY RD 2454                                                                                                                                                                TERRELL                                           TX                                                     751608615  
000000002260KPMG LLP                                                              400 E VAN BUREN #1100                                                                                                                                                               PHOENIX                                           AZ                                                     85004      
000000002261GRANT THORNTON LLP                                                    PHILIP OLZEN                                                P O BOX 59365                                                                                                           SCHAUMBURG                                        IL                                                     601590365  
000000002262DANIEL H GARCIA                                                       565 S MASON RD STE 154                                                                                                                                                              KATY                                              TX                                                     77450      
