0000017201153R   TRAVIS CO MUD NO 24                                                   0000000000000000000000016839710000000000000000000000000263250000000000779680000000000000000000000053242560000000000000000000000004647050000000000000000000000000000000000000000000000000000070345520000000000270000000000000000000000000000000000000000000000270000000070345520000000000000000000000000000000000000000000000000000000000000000000000000000000000000000000000000000000000000000000000000000000000000000000000000000000000000000000000000000000000000000000000000000000000000000000000000000000000000000000000000000000000000000000000000000000000000000000000000000000000000000000000000000000000000000000000000000000000000000000000000000000000000000000000000000000000000000000000000000000000000000000000000000000000000002019000000000015000000000000000000000000000000000000077968000000000000000000000005324256000000000000000000000000000000000000000000000000000000000000000000000000000000000000000000000000000000000000000000007642000000000000000000000000000000000000000000000000000000000000000000000000000000000000000000000000000000000000000000000000000000000000000000000000000000000000000000000000000000000000000000000000000000000000000000000000000000000000000000000000000000000000000000000000000000000000000000000000000000000000000000000000000000000000000000000000000000000000000000000000000000000000000000000000000000000000000000000000000000000000000000000000000000000000000000000000000000000000000000000000000000000000000000000000000000000000000000000000000000000000000000000000000000000000000000000000000000000000000000000000000000000000000000000000000000000000000000000000000000000000000000000000000000004000000001323559000000000000000000000000000000000000000000000000000000000000000000000000000000000000000000000000000000000000000000000000000000000000000000000000000000000000000000000000000000000000000000000000000000000000000000000000000000000000000000000000000
0000017271736R   TRAVIS CO ESD NO 15                                                   0000002152047480000003052782400000006296545600000003336106880000000054954240000000000000000000002975907600000000000000000000015903645830000000000000000000003407076370000000000000000000017813389960000000097870000000006600000000000000000000000000000000104470000021220466330000000011920000000561593070000000000000000000000000000000000000000000000000000000000000000000000000000000000000000000000000000000001190000000008966770000000000000000000000000000000000000010000000140090930000000000030000000002604540000000000120000000000028830000000000000000000000000000000000000260000000002583330000000000000000000000000000000000000000000000000000000000000000030000000013773340000000000000000000000000000000000000000000000000000002019000000000015000000000000000000000000000000000005477087000000000018337000000296752498000000000838262000000000000000000000000000000000000000000000000000000000000000000000000000000000000000000000000000007642000000000000000000000000000000000000000000000000000000000000000000000000000000000000000000052000000008559611000000000000000000000000000000000000000000000000000000270309000000000000000000000000000000000000000000000000000006000000000761740000000000001000000000011206000000000000000000000000000000000000000000000000000000000000000000000000000000000000000000000000000000000000000000000003000000020012814000000000000000000000000000000000000000000000000000000000000000000000000000000000000000000000000000000000000000000000000000000000000000000000000000000000000000000000000000018000000000384976000000000000000000000000000000000000000000000000000000000000000001000000000834030000000000419000000138255515000000000000000000000000000000000000000000000000000000000000000000000000000000000000000000000000000000000000000000000000000000000000000000000000000000000000000000000000000000000000000000000000000000000000000000000000000000000000000000000000000
0000017273477N   TRAVIS CO MUD NO 19                                                   0000000000000000000000029885720000000000000000000000000000000000000000239990000000000000000000000021891280000000000000000000000017282560000000000000000000000000000000000000000000000000000051777000000000000150000000000000000000000000000000000000000000000150000000051777000000000000000000000000000000000000000000000000000000000000000000000000000000000000000000000000000000000000000000000000000000000000000000000000000000000000000000000000000000000000000000000000000000000000000000000000000000000000000000000000000000000000000000000000000000000000000000000000000000000000000000000000000000000000000000000000000000000000000000000000000000000000000000000000000000000000000000000000000000000000000000000000000000000000000002019000000000015000000000000000000000000000000000000023999000000000000000000000002189128000000000000000000000000000000000000000000000000000000000000000000000000000000000000000000000000000000000000000000007642000000000000000000000000000000000000000000000000000000000000000000000000000000000000000000000000000000000000000000000000000000000000000000000000000000000000000000000000000000000000000000000000000000000000000000000000000000000000000000000000000000000000000000000000000000000000000000000000000000000000000000000000000000000000000000000000000000000000000000000000000000000000000000000000000000000000000000000000000000000000000000000000000000000000000000000000000000000000000000000000000000000000000000000000000000000000000000000000000000000000000000000000000000000000000000000000000000000000000000000000000000000000000000000000000000000000000000000000000000000000000000000000000000002000000001284315000000000000000000000000000000000000000000000000000000000000000000000000000000000000000000000000000000000000000000000000000000000000000000000000000000000000000000000000000000000000000000000000000000000000000000000000000000000000000000000000000
0000017273487P   TRAVIS CO MUD NO 20                                                   0000000000000000000000082222550000000000000000000000000273270000000000285830000000000000000000000025978270000000000000000000000082781650000000000000000000000000000000000000000000000000000108474090000000002270000000000000000000000000000000000000000000002270000000108474090000000000000000000000000000000000000000000000000000000000000000000000000000000000000000000000000000000000000000000000000000000000000000000000000000000000000000000000000000000000000000000000000000000000000000000000000000000000000000000000000000000000000000000000000000000000000000000000000000000000000000000000000000000000000000000000000000000000000000000000000000000000000000000000000000000000000000000000000000000000000000000000000000000000000002019000000000015000000000000000000000000000000000000028583000000000000000000000002597827000000000000000000000000000000000000000000000000000000000000000000000000000000000000000000000000000000000000000000007642000000000000000000000000000000000000000000000000000000000000000000000000000000000000000000000000000000000000000000000000000000000000000000000000000000000000000000000000000000000000000000000000000000000000000000000000000000000000000000000000000000000000000000000000000000000000000000000000000000000000000000000000000000000000000000000000000000000000000000000000000000000000000000000000000000000000000000000000000000000000000000000000000000000000000000000000000000000000000000000000000000000000000000000000000000000000000000000000000000000000000000000000000000000000000000000000000000000000000000000000000000000000000000000000000000000000000000000000000000000000000000000000000000000000000000000000000000000000000000000000000000000000000000000000000000000000000000000000000000000000000000000000000000000000000000000000000000000000000000000000000000000000000000000000000000000000000000000000000000000000000000000000000000000000000000000000000
0000017298577R   TRAVIS CO MUD NO 22                                                   0000000000175000000000012053000000000020316240000000001092180000000000744280000000000000000000000081679830000000000000000000000034650350000000000000000000000000270060000000000000000000000115316250000000000070000000000030000000000000000000000000000000000100000000115586310000000000000000000000000000000000000000000000000000000000000000000000000000000000000000000000000000000000000000000000000000000000000000000000000000000000000000000000000000000000000000000000000000000000000000000000000000000000000000000000000000000000000000000000000000000000000000000000000000000000000000000000000000000000000000000000000000000000000000000000000000000000000000000000000000000000000000000000000000000000000000000000000000000000000002019000000000015000000000000000000000000000000000000074428000000000000000000000008167983000000000000000000000000000000000000000000000000000000000000000000000000000000000000000000000000000000000000000000007642000000000000000000000000000000000000000000000000000000000000000000000000000000000000000000000000000000000000000000000000000000000000000000000000000000000000000000000000000000000000000000000000000000000000000000000000000000000000000000000000000000000000000000000000000000000000000000000000000000000000000000000000000000000000000000000000000000000000000000000000000000000000000000000000000000000000000000000000000000000000000000000000000000000000000000000000000000000000000000000000000000000000000000000000000000000000000000000000000000000000000000000000000000000000000000000000000000000000000000000000000000000000000000000000000000000000000000000000000000000000000000000000000000001000000000000041000000000000000000000000000000000000000000000000000000000000000000000000000000000000000000000000000000000000000000000000000000000000000000000000000000000000000000000000000000000000000000000000000000000000000000000000000000000000000000000000000
0000017618216C   LAKE POINTE MUD                                                       0000001105511820000000227876000000004224856220000000285037860000000000058490000000000000000000000035934600000000000000000000005541461060000000000000000000000029908720000000000000000000005879216500000000010030000000000780000000000000000000000000000000010810000005909125220000000002240000000050911510000000000000000000000000000000000000000000000000000000000000000000000000000000000000000000000000000000000120000000001140000000000000000000000000000000000000000000000000000000000000000000000000000000000000000000000020000000000008270000000000000000000000000000000000000030000000000434590000000000000000000000000000000000000000000000000000000000000000000000000000000000000000000000000000000000000000000000000000000000000002019000000000015000000000000000000000000000000000000005849000000000000000000000003593460000000000000000000000000000000000000000000000000000000000000000000000000000000000000000000000000000000000000000000007642000000000000000000000000000000000000000000000000000000000000000000000000000000000000000000003000000002241103000000000000000000000000000000000000000000000000000000000000000000000000000000000000000000000000000000000000000001000000000499095000000000000000000000000000000000000000000000000000000000000000000000000000000000000000000000000000000000000000000000000000000000000000000000000000000000000000000000000000000000000000000000000000000000000000000000000000000000000000000000000000000000000000000000000000000000000000000000000000000000000000000000000000000000000000000000000000000000000000000000000000000000000000000000000000000000000000000000000000000000000000000000000000000000037000000025189170000000000000000000000000000000000000000000000000000000000000000000000000000000000000000000000000000000000000000000000000000000000000000000000000000000000000000000000000000000000000000000000000000000000000000000000000000000000000000000000000000
0000017618318P   RIVER PLACE LIMITED DISTRICT                                          0000002004799470000000149834190000005419047140000000100670350000000000000000000000000000000000000000000000000000000000000000006824179200000000000000000000000008801710000000000000000000007674351150000000010710000000000280000000000000000000000000000000010990000007683152860000000001400000000047559830000000009250000000661308400000000000000000000000002340000000058125000000000000050000000001250000000000000140000000001390000000000000000000000000000000000000000000000000000000000000000000000000000000000000000000000050000000000015770000000000000000000000000000000000000170000000001867310000000000000000000000000000000000000000000000000000000000000000000000000000000000000000000000000000000000000000000000000000000000000002019000000000015000000000000000000000000000000000000000000000000000000000000000000000000000000000000000000000000000000000000000000000000000000000000000000000000000000000000000000000000000000000000000000007642000000000000000000000000000000000000000000000000000000000000000000000000000000000000000000004000000002109924000000000000000000000000000000000000000000000000000000000000000000000000000000000000000000000000000000000000000000000000000000000000000000000000000000000000000000000000000000000000000000000000000000000000000000000000000000000000000000000000000000000000000000000000000000000000000000000000000000000000000000000000000000000000000000000000000000000000000000000000000000000000000000000000000000000000000000000000000000000000000000000000000000000000000000000000000000000000000000000000000000000000000000000000000000000000000000000000000000000000000000000000000000000000000000018000000006635811000000000000000000000000000000000000000000000000000000000000000000000000000000000000000000000000000000000000000000000000000000000000000000000000000000000000000000000000000000000000000000000000000000000000000000000000000000000000000000000000000
0000017723311T   TESSERA ON LAKE TRAVIS PID (IMP AREA #1)                              0000000092547500000000078860000000000513368220000000000065670000000000000000000000000000000000000000000000000000000000000000000664769200000000000000000000000000000000000000000000000000000684841390000000002960000000000000000000000000000000000000000000002960000000684841390000000000140000000004860750000000000000000000000000000000000000000000000000000000000000000000000000000000000000000000000000000000000070000000000840000000000000000000000000000000000000000000000000000000000000000000000000000000000000000000000000000000000000000000000000000000000000000000000000000000000000000000000000000000000000000000000000000000000000000000000000000000000000000000000000000000000000000000000000000000000000000000000000000000000002019000000000015000000000000000000000000000000000000000000000000000000000000000000000000000000000000000000000000000000000000000000000000000000000000000000000000000000000000000000000000000000000000000000007642000000000000000000000000000000000000000000000000000000000000000000000000000000000000000000004000000001437144000000000000000000000000000000000000000000000000000000000000000000000000000000000000000000000000000000000000000000000000000000000000000000000000000000000000000000000000000000000000000000000000000000000000000000000000000000000000000000000000000000000000000000000000000000000000000000000000000000000000000000000000000000000000000000000000000000000000000000000000000000000000000000000000000000000000000000000000000000000000000000000000000000000000000000000000000000000000000000000000000000000000000000000000000000000000000000000000000000000000000000000000000000000000000000000000000000000000000000000000000000000000000000000000000000000000000000000000000000000000000000000000000000000000000000000000000000000000000000000000000000000000000000000000000000000000000000000000000000000000000000000000000000000000000000000000000000000000000
0000017723331U   TESSERA ON LAKE TRAVIS PID (IMP AREA #2)                              0000000001200000000000070088460000000002833730000000000000000000000000024390000000000000000000000004221150000000000000000000000074146580000000000000000000000000000000000000000000000000000078343340000000001920000000000000000000000000000000000000000000001920000000078343340000000000000000000000000000000000000000000000000000000000000000000000000000000000000000000000000000000000000000000000000000000000000000000000000000000000000000000000000000000000000000000000000000000000000000000000000000000000000000000000000000000000000000000000000000000000000000000000000000000000000000000000000000000000000000000000000000000000000000000000000000000000000000000000000000000000000000000000000000000000000000000000000000000000000002019000000000015000000000000000000000000000000000000002439000000000000000000000000422115000000000000000000000000000000000000000000000000000000000000000000000000000000000000000000000000000000000000000000007642000000000000000000000000000000000000000000000000000000000000000000000000000000000000000000000000000000000000000000000000000000000000000000000000000000000000000000000000000000000000000000000000000000000000000000000000000000000000000000000000000000000000000000000000000000000000000000000000000000000000000000000000000000000000000000000000000000000000000000000000000000000000000000000000000000000000000000000000000000000000000000000000000000000000000000000000000000000000000000000000000000000000000000000000000000000000000000000000000000000000000000000000000000000000000000000000000000000000000000000000000000000000000000000000000000000000000000000000000000000000000000000000000000000000000000000000000000000000000000000000000000000000000000000000000000000000000000000000000000000000000000000000000000000000000000000000000000000000000000000000000000000000000000000000000000000000000000000000000000000000000000000000000000000000000000000000000
000001772334WH   WILDHORSE PID (IMP AREA #1)                                           0000000006650000000000025718620000000047609900000000000000000000000000000000000000000000000000000000000000000000000000000000000079978520000000000000000000000000000000000000000000000000000079978520000000002240000000000000000000000000000000000000000000002240000000079978520000000000000000000000000000000000000000000000000000000000000000000000000000000000000000000000000000000000000000000000000000000000000000000000000000000000000000000000000000000000000000000000000000000000000000000000000000000000000000000000000000000000000000000000000000000000000000000000000000000000000000000000000000000000000000000000000000000000000000000000000000000000000000000000000000000000000000000000000000000000000000000000000000000000000002019000000000015000000000000000000000000000000000000000000000000000000000000000000000000000000000000000000000000000000000000000000000000000000000000000000000000000000000000000000000000000000000000000000007642000000000000000000000000000000000000000000000000000000000000000000000000000000000000000000000000000000000000000000000000000000000000000000000000000000000000000000000000000000000000000000000000000000000000000000000000000000000000000000000000000000000000000000000000000000000000000000000000000000000000000000000000000000000000000000000000000000000000000000000000000000000000000000000000000000000000000000000000000000000000000000000000000000000000000000000000000000000000000000000000000000000000000000000000000000000000000000000000000000000000000000000000000000000000000000000000000000000000000000000000000000000000000000000000000000000000000000000000000000000000000000000000000000000000000000000000000000000000000000000000000000000000000000000000000000000000000000000000000000000000000000000000000000000000000000000000000000000000000000000000000000000000000000000000000000000000000000000000000000000000000000000000000000000000000000000000000
0000018035441X   REINVESTMENT ZONE # 1 - PECAN DIST SUB                                0000000000000000000000000000000000000000000000000000000000000000000000000000000000000000000000000000000000000000000000000000000000000000000000000000000000000000000000000000000000000000000000000000000000000000000000000000000000000000000000000000000000000000000000000000000000000000000000000000000000000000000000000000000000000000000000000000000000000000000000000000000000000000000000000000000000000000000000000000000000000000000000000000000000000000000000000000000000000000000000000000000000000000000000000000000000000000000000000000000000000000000000000000000000000000000000000000000000000000000000000000000000000000000000000000000000000000000000000000000000000000000000000000000000000000000000000000000000000000000002019000000000015000000000000000000000000000000000000000000000000000000000000000000000000000000000000000000000000000000000000000000000000000000000000000000000000000000000000000000000000000000000000000000007642000000000000000000000000000000000000000000000000000000000000000000000000000000000000000000000000000000000000000000000000000000000000000000000000000000000000000000000000000000000000000000000000000000000000000000000000000000000000000000000000000000000000000000000000000000000000000000000000000000000000000000000000000000000000000000000000000000000000000000000000000000000000000000000000000000000000000000000000000000000000000000000000000000000000000000000000000000000000000000000000000000000000000000000000000000000000000000000000000000000000000000000000000000000000000000000000000000000000000000000000000000000000000000000000000000000000000000000000000000000000000000000000000000000000000000000000000000000000000000000000000000000000000000000000000000000000000000000000000000000000000000000000000000000000000000000000000000000000000000000000000000000000000000000000000000000000000000000000000000000000000000000000000000000000000000000000000
0000018079568R   TRAVIS CO ESD NO 16                                                   0000005218269950000004483393830000013067417420000001600348560000000013588870000000000000000000002660820600000000000000000000021687776430000000000000000000000001218930000000000000000000027030250360000000067530000000000020000000000000000000000000000000067550000027031469290000000011330000001027045500000000000000000000000000000000000000000000000000000000000000000000000000000000000000000000000000000000000710000000006933860000000000000000000000000000000000000000000000000000000000000000000000000000000000000000000000000000000000000000000000000000000000000000000000000000000000000000000000000000000000000000000000000000000000000000000000000000000000040000000022666120000000000000000000000000000000000000000000000000000002019000000000015000000000000000000000000000000000001358809000000000000078000000266052341000000000029719000000000000000000000000000000000000000000000000000000000000000000000000000000000000000000000000000007642000000000000000000000000000000000000000000000000000000000000000000000000000000000000000000022000000006623865000000000000000000000000000000000000000000000000000000000000000000000000000000000000000000000000000000000000000002000000000754752000000000000000000000000000000000000000000000000000000000000000000000000000000000000000000000000000000000000000000000001000000027342600000000000000000000000000000000000000000000000000000000000000000000000000000000000000000000000000000000000000000000000000000000000000000000000000000000000000000000000000000000000000000000000000000000002000000000009508000000000000000000000000000000000000000000000000000000000000000000000000000000000000000000105000000131547093000000000000000000000000000000000000000000000000000000000000000000000000000000000000000000000000000000000000000000000000000000000000000000000000000000000000000000000000000000000000000000000000000000000000000000000000000000000000000000000000000
0000018079702T   TRAVIS CO MUD NO 25                                                   0000000000000000000000000000000000000000000000000000000000000000000000000000000000000000000000000000000000000000000000000000000000000000000000000000000000000000000000000000000000000000000000000000000000000000000000000000000000000000000000000000000000000000000000000000000000000000000000000000000000000000000000000000000000000000000000000000000000000000000000000000000000000000000000000000000000000000000000000000000000000000000000000000000000000000000000000000000000000000000000000000000000000000000000000000000000000000000000000000000000000000000000000000000000000000000000000000000000000000000000000000000000000000000000000000000000000000000000000000000000000000000000000000000000000000000000000000000000000000000002019000000000015000000000000000000000000000000000000000000000000000000000000000000000000000000000000000000000000000000000000000000000000000000000000000000000000000000000000000000000000000000000000000000007642000000000000000000000000000000000000000000000000000000000000000000000000000000000000000000000000000000000000000000000000000000000000000000000000000000000000000000000000000000000000000000000000000000000000000000000000000000000000000000000000000000000000000000000000000000000000000000000000000000000000000000000000000000000000000000000000000000000000000000000000000000000000000000000000000000000000000000000000000000000000000000000000000000000000000000000000000000000000000000000000000000000000000000000000000000000000000000000000000000000000000000000000000000000000000000000000000000000000000000000000000000000000000000000000000000000000000000000000000000000000000000000000000000000000000000000000000000000000000000000000000000000000000000000000000000000000000000000000000000000000000000000000000000000000000000000000000000000000000000000000000000000000000000000000000000000000000000000000000000000000000000000000000000000000000000000000000
0000018142773T   LAGOS PID                                                             0000000000840000000000029880840000000026130850000000000004180000000000142690000000000000000000000010802220000000000000000000000056998560000000000000000000000000000000000000000000000000000067658090000000001280000000000000000000000000000000000000000000001280000000067658090000000000000000000000000000000000000000000000000000000000000000000000000000000000000000000000000000000000000000000000000000000000000000000000000000000000000000000000000000000000000000000000000000000000000000000000000000000000000000000000000000000000000000000000000000000000000000000000000000000000000000000000000000000000000000000000000000000000000000000000000000000000000000000000000000000000000000000000000000000000000000000000000000000000000002019000000000015000000000000000000000000000000000000014269000000000000000000000001080222000000000000000000000000000000000000000000000000000000000000000000000000000000000000000000000000000000000000000000007642000000000000000000000000000000000000000000000000000000000000000000000000000000000000000000000000000000000000000000000000000000000000000000000000000000000000000000000000000000000000000000000000000000000000000000000000000000000000000000000000000000000000000000000000000000000000000000000000000000000000000000000000000000000000000000000000000000000000000000000000000000000000000000000000000000000000000000000000000000000000000000000000000000000000000000000000000000000000000000000000000000000000000000000000000000000000000000000000000000000000000000000000000000000000000000000000000000000000000000000000000000000000000000000000000000000000000000000000000000000000000000000000000000000000000000000000000000000000000000000000000000000000000000000000000000000000000000000000000000000000000000000000000000000000000000000000000000000000000000000000000000000000000000000000000000000000000000000000000000000000000000000000000000000000000000000000000
0000000010000A   TRAVIS CENTRAL APP DIST                                               0000459511394830000504454544630000817995995620000719589236130000000322143320000000000041940000031973104740000000001967100002319232859160000000002701480000140906331580000000000000000002533526243050000004054540000000436720000000000050000000000000000004491310002674435276110000000882310000044187876670000000000000000000000000000000000000000000000000000000000000000000000000000000000000000000000000000000060740000000516247270000000000000000000000000000000000000640000000620177120000000001100000000334561680000000015900000000004334120000000000010000000000000000000000040040000000405979590000000000000000000000000000000000000000000000000000000000000000210000000089788770000000000000000000000000000000000000000000000000000002019000000000015000000000000000000000000000000000031878296000000000336036000003126487504000000070822970000000000004194000000000000000000000000196710000000000000000000000000000000000000000000000000000000007642000000000000000000000000000000000000067000000067103357000000000000000000000000000000000002076000000653781128000000000000000000000007227680000000000000000000000001118217000000000000000000000000000000000000000000000000000260000000088672845000000000069000000002375410000000000000000000000000000000000000016000000015579070000000000000000000000000000000000000034000000128419276000000000214000000731344938000000000004000000005132272000000000000000000000000000000000000000000000000000000000000000006000000000092727000000000000000000000000000000000000000000000000000000000000000086000000006208828000000000000000000000000000000000000000000000000000000000000000044000000074588679000000011161000026042925780000000000000000000000000000000000000000000000000000000000000000002000000000459427000000000000000000000000000000000000004000000001632773000000000000000000000000000000000000001000000000225843000000000000000000000000000000000000000000000000000000
00000000100101   AUSTIN ISD                                                            0000295871374270000390121561590000408328990430000502632824670000000014711260000000000000000000003587254210000000000000000001372747165880000000000000000000061652023210000000000000000001600542005170000002060840000000282330000000000000000000000000000002343170001662194028380000000550080000028291280780000001177150000000000000000000029031875240000000352450000011973892250000000021360000000503467490000000029200000000246966330000000000000000000000000000000000000000000000000000000000000000770000000252834670000000010140000000002736150000000005500000002924099090000000020600000000207282590000000000000000000000000000000000000000000000000000000000000000010000000003656090000000000000000000000000000000000000020000000003269302019000000000015000000000000000000000000000000000001460601000000000010525000000326725162000000032000259000000000000000000000000000000000000000000000000000000000000000000000000000000000000000000000000000007642000000000000000000000000000000000000063000000043008723000000000000000000000000000000000000834000000257430383000000000000000000000000000000000000000000000000000000000000000000000000000000000000000000000000000000000000000171000000054244746000000000068000000002364204000000000000000000000000000000000000015000000015246223000000000000000000000000000000000000025000000082980502000000000174000000576319754000000000002000000004882688000000000000000000000000000000000000000000000000000000000000000003000000000019332000000000000000000000000000000000000000000000000000000000000000014000000000589145000000000000000000000000000000000000000000000000000000000000000030000000051855977000000007034000020186308710000000000000000000000000000000000000000000000000000000000000000000000000000000000000000000000000000000000000000000000001000000000426940000000000000000000000000000000000000000000000000000000000000000000000000000000000000000000000000000000000000
0000018387074T   MANOR HEIGHTS TIRZ                                                    0000000000000000000000000000000000000000000000000000000000000000000000000000000000000000000000000000000000000000000000000000000000000000000000000000000000000000000000000000000000000000000000000000000000000000000000000000000000000000000000000000000000000000000000000000000000000000000000000000000000000000000000000000000000000000000000000000000000000000000000000000000000000000000000000000000000000000000000000000000000000000000000000000000000000000000000000000000000000000000000000000000000000000000000000000000000000000000000000000000000000000000000000000000000000000000000000000000000000000000000000000000000000000000000000000000000000000000000000000000000000000000000000000000000000000000000000000000000000000000002019000000000015000000000000000000000000000000000000000000000000000000000000000000000000000000000000000000000000000000000000000000000000000000000000000000000000000000000000000000000000000000000000000000007642000000000000000000000000000000000000000000000000000000000000000000000000000000000000000000000000000000000000000000000000000000000000000000000000000000000000000000000000000000000000000000000000000000000000000000000000000000000000000000000000000000000000000000000000000000000000000000000000000000000000000000000000000000000000000000000000000000000000000000000000000000000000000000000000000000000000000000000000000000000000000000000000000000000000000000000000000000000000000000000000000000000000000000000000000000000000000000000000000000000000000000000000000000000000000000000000000000000000000000000000000000000000000000000000000000000000000000000000000000000000000000000000000000000000000000000000000000000000000000000000000000000000000000000000000000000000000000000000000000000000000000000000000000000000000000000000000000000000000000000000000000000000000000000000000000000000000000000000000000000000000000000000000000000000000000000000000
0000015740746M   TRAVIS CO MUD NO 21                                                   0000000559175500000000236049940000002821145350000000024158170000000000000000000000000000000000000000000000000000000000000000003562707310000000000000000000000006621450000000000000000000003640528960000000011450000000000200000000000000000000000000000000011650000003647150410000000000280000000005974960000000000000000000000000000000000000000000000000000000000000000000000000000000000000000000000000000000000160000000001465000000000000000000000000000000000000000000000000000000000000000000000000000000000000000000000010000000000001440000000000000000000000000000000000000080000000000981480000000000000000000000000000000000000000000000000000000000000000000000000000000000000000000000000000000000000000000000000000000000000002019000000000015000000000000000000000000000000000000000000000000000000000000000000000000000000000000000000000000000000000000000000000000000000000000000000000000000000000000000000000000000000000000000000007642000000000000000000000000000000000000000000000000000000000000000000000000000000000000000000015000000006354367000000000000000000000000000000000000000000000000000000000000000000000000000000000000000000000000000000000000000001000000000565634000000000000000000000000000000000000000000000000000000000000000000000000000000000000000000000000000000000000000000000000000000000000000000000000000000000000000000000000000000000000000000000000000000000000000000000000000000000000000000000000000000000000000000000000000000000000000000000000000000000000000000000000000000000000000000000000000000000000000000000000000000000000000000000000000000000000000000000000000000000000000000000000000000000052000000000682021000000000000000000000000000000000000000000000000000000000000000000000000000000000000000000000000000000000000000000000000000000000000000000000000000000000000000000000000000000000000000000000000000000000000000000000000000000000000000000000000000
0000015740826L   TRAVIS CO MUD NO 17                                                   0000000114787810000000093707860000000891051430000000006750520000000000000000000000000000000000000000000000000000000000000000001082687200000000000000000000000001074630000000000000000000001106297620000000005330000000000070000000000000000000000000000000005400000001107372250000000000060000000000367580000000000000000000000000000000000000000000000000000000000000000000000000000000000000000000000000000000000140000000001065000000000000000000000000000000000000000000000000000000000000000000000000000000000000000000000000000000000000000000000000000000000000000000000000000020000000000178860000000000000000000000000000000000000000000000000000000000000000000000000000000000000000000000000000000000000000000000000000000000000002019000000000015000000000000000000000000000000000000000000000000000000000000000000000000000000000000000000000000000000000000000000000000000000000000000000000000000000000000000000000000000000000000000000007642000000000000000000000000000000000000000000000000000000000000000000000000000000000000000000007000000001975019000000000000000000000000000000000000000000000000000000000000000000000000000000000000000000000000000000000000000000000000000000000000000000000000000000000000000000000000000000000000000000000000000000000000000000000000000000000000000000000000000000000000000000000000000000000000000000000000000000000000000000000000000000000000000000000000000000000000000000000000000000000000000000000000000000000000000000000000000000000000000000000000000000000000000000000000000000000000000000000000000000000000000000000000000000000000000000000000000000000000000000000000000000000000000000004000000000332342000000000000000000000000000000000000000000000000000000000000000000000000000000000000000000000000000000000000000000000000000000000000000000000000000000000000000000000000000000000000000000000000000000000000000000000000000000000000000000000000000
0000015745433N   TRAVIS CO MUD NO 18                                                   0000000339288400000000131280060000001800384330000000118573030000000000000000000000000000000000000000000000000000000000000000002376405640000000000000000000000009027670000000000000000000002389525820000000005220000000000170000000000000000000000000000000005390000002398553490000000000070000000000914160000000000000000000000000000000000000000000000000000000000000000000000000000000000000000000000000000000000050000000000340000000000000000000000000000000000000000000000000000000000000000000000000000000000000000000000000000000000000000000000000000000000000000000000000000180000000001695650000000000000000000000000000000000000000000000000000000000000000000000000000000000000000000000000000000000000000000000000000000000000002019000000000015000000000000000000000000000000000000000000000000000000000000000000000000000000000000000000000000000000000000000000000000000000000000000000000000000000000000000000000000000000000000000000007642000000000000000000000000000000000000000000000000000000000000000000000000000000000000000000004000000001480598000000000000000000000000000000000000000000000000000000000000000000000000000000000000000000000000000000000000000000000000000000000000000000000000000000000000000000000000000000000000000000000000000000000000000000000000000000000000000000000000000000000000000000000000000000000000000000000000000000000000000000000000000000000000000000000000000000000000000000000000000000000000000000000000000000000000000000000000000000000000000000000000000000000000000000000000000000000000000000000000000000000000000000000000000000000000000000000000000000000000000000000000000000000000000000008000000000439206000000000000000000000000000000000000000000000000000000000000000000000000000000000000000000000000000000000000000000000000000000000000000000000000000000000000000000000000000000000000000000000000000000000000000000000000000000000000000000000000000
00000000100202   CITY OF AUSTIN                                                        0000326361680700000431908115290000470344799270000611578088370000000011088680000000000000000000003936421690000000000000000001569235706140000000000000000000111681274590000000000000000001844129105320000002396520000000327360000000000000000000000000000002723880001955810379910000000621290000030288040250000001377690000058410953690000000000000000000000387720000033074842880000000024120000001967189380000000032910000000278717910000000000000000000000000000000000002020000013060874910000000001000000000548803500000000011920000000003116560000000005500000005319120150000000024990000000243530370000000000000000000000000000000000000000000000000000000000000000040000000038616960000000000000000000000000000000000000000000000000000002019000000000015000000000000000000000000000000000001036929000000000071939000000346553039000000047089130000000000000000000000000000000000000000000000000000000000000000000000000000000000000000000000000000007642000000000000000000000000000000000000069000000063283002000000000000000000000000000000000000974000000315925841000002848259157000001638388679000000000000000000000000000000000000000000000000000000044000000000549042000000000171000000058220939000000000068000000002364204000000000000000000000000000000000000013000000011976804000000000000000000000000000000000000027000000098087335000000000183000000652725420000000000002000000004882688000000000000000000000000000000000000000000000000000000000000000004000000000053406000000000000000000000000000000000000000000000000000000000000000002000000000032836000000000000000000000000000000000000000000000000000000000000000031000000069772475000000007566000022714106375000000000000000000000000000000000000000000000000000000000000000000000000000000000000000000000000000000000000000000000001000000000451940000000000000000000000000000000000000000000000000000000000000000000000000000000000000000000000000000000000000
00000000100303   TRAVIS COUNTY                                                         0000459214915070000502870353070000817596781710000717036555820000000304121860000000000041940000031040192650000000001967100002045466974140000000002701480000136309090740000000000000000002527760765420000004054740000000436120000000000050000000000000000004490910002664072557640000000882330000044154022430000002239160000190084478380000000000000000000000616080000050112456370000000039610000003025380800000000060740000000515673340000000000000000000000000000000000002600000016588799160000000001440000000721344770000000015900000000004334120000000005500000005283425450000000040060000000411161040000000000000000000000000000000000000000000000000000000000000000210000000088144800000000000000000000000000000000000000040000000004979312019000000000015000000000000000000000000000000000030076150000000000336036000003033196295000000070822970000000000004194000000000000000000000000196710000000000000000000000000000000000000000000000000000000007642000000000000000000000000000000000000072000000078622098000000000000000000000000000000000002076000000639810778000000154957658000000070270019000000000000000000000001118217000000000000000000000000001000000000033000000000000262000000088801827000000000069000000002375410000000000000000000000000000000000000016000000015579070000000000000000000000000000000000000034000000128419276000000000214000000731175054000000000004000000005132272000000000000000000000000000000000000000000000000000000000000000006000000000092727000000000000000000000000000000000000000000000000000000000000000086000000006112924000000000000000000000000000000000000000000000000000000000000000044000000074588679000000011161000025993599041000000000000000000000000000000000000000000000000000000000000000002000000000459427000000000000000000000000000000000000004000000001632773000000000000000000000000000000000000001000000000225843000000000000000000000000000000000000000000000000000000
00000000100405   CITY OF MANOR                                                         0000001190612780000001256969410000006266336440000001592755660000000005423810000000000000000000000563641010000000000000000000009541585010000000000000000000000508893570000000000000000000010870315300000000049960000000003270000000000000000000000000000000053230000011379208870000000008530000000209227080000000000000000000000000000000000000000000000000003200000000029386570000000000000000000000000000000000001260000000010390000000000000000000000000000000000000000000000000000000000000000000010000000000091000000000000070000000000010390000000000000000000000000000000000000180000000002690360000000000000000000000000000000000000000000000000000000000000000000000000000000000000000000000000000000000000000000000000000000000000002019000000000015000000000000000000000000000000000000525396000000000016985000000055785758000000000578343000000000000000000000000000000000000000000000000000000000000000000000000000000000000000000000000000007642000000000000000000000000000000000000000000000000000000000000000000000000000000000000000000048000000010047113000000000000000000000000000000000000000000000000000000000000000000000000000000000000000000000000000000000000000000000000000000000000000000000000000000000000000000000000000000000000000000000000000000000000000000000000000000000000000000000000000000001000000000019256000000000001000000000263780000000000000000000000000000000000000000000000000000000000000000000000000000000000000000000000000000000000000000000000000000000000000000000000000000000000000000000000000000001000000000078320000000000000000000000000000000000000000000000000000000000000000002000000000886143000000000115000000092027872000000000000000000000000000000000000000000000000000000000000000000000000000000000000000000000000000000000000000000000000000000000000000000000000000000000000000000000000000000000000000000000000000000000000000000000000000000000000000000000000000
00000000100506   DEL VALLE ISD                                                         0000006325579920000018687377350000023100711960000029142447840000000071617870000000000000000000004613822250000000000000000000072711612920000000002575560000015775603750000000000000000000081869939320000000246290000000019350000000000020000000000000000000265660000097648118630000000046070000001962283050000000093480000000000000000000002237040430000000019340000000172580310000000003530000000030727410000000003190000000023531260000000000000000000000000000000000000300000001145619320000000000150000000055297580000000000520000000000089100000000000000000000000000000000000001640000000015371640000000000000000000000000000000000000000000000000000000000000000070000000019112590000000000000000000000000000000000000000000000000000002019000000000015000000000000000000000000000000000007010936000000000150851000000448196791000000013185434000000000000000000000000000000000000000000000000000000000000000000000000000000000000000000000000000007642000000000000000000000000000000000000002000000007638021000000000000000000000000000000000000145000000022185335000000000000000000000000000000000000000000000000000000270309000000000000000000000000001000000000033000000000000012000000001294804000000000001000000000011206000000000000000000000000000000000000001000000000332847000000000000000000000000000000000000000000000000000000000000000004000000001330279000000000000000000000000000000000000000000000000000000000000000000000000000000000000000000000000000000000000000000000000000000000000000000000000000000000000000000000000000026000000000716506000000000000000000000000000000000000000000000000000000000000000001000000000834030000000000827000001453834678000000000000000000000000000000000000000000000000000000000000000000000000000000000000000000000000000000000000000000000000000000000000000000000000000000000000000000000000000000000000000000000000000000000000000000000000000000000000000000000000000
000001594404CLT  COMMUNITY LAND TRUST                                                  0000000000627500000000000000000000000000882160000000000000000000000000000000000000000000000000000000000000000000000000000000000000882160000000000000000000000000000000000000000000000000000001509660000000000030000000000000000000000000000000000000000000000030000000001509660000000000000000000000000000000000000000000000000000000000000000000000000000000000000000000000000000000000000000000000000000000000000000000000000000000000000000000000000000000000000000000000000000000000000000000000000000000000000000000000000000000000000000000000000000000000000000000000000000000000000000000000000000000000000000000000000000000000000000000000000000000000000000000000000000000000000000000000000000000000000000000000000000000000000002019000000000015000000000000000000000000000000000000000000000000000000000000000000000000000000000000000000000000000000000000000000000000000000000000000000000000000000000000000000000000000000000000000000007642000000000000000000000000000000000000000000000000000000000000000000000000000000000000000000000000000000000000000000000000000000000000000000000000000000000000000000000000000000000000000000000000001000000000033000000000000000000000000000000000000000000000000000000000000000000000000000000000000000000000000000000000000000000000000000000000000000000000000000000000000000000000000000000000000000000000000000000000000000000000000000000000000000000000000000000000000000000000000000000000000000000000000000000000000000000000000000000000000000000000000000000000000000000000000000000000000000000000000000000000000000000000000000000000000000000000000000000000000000000000000000000000000000001000000000029750000000000000000000000000000000000000000000000000000000000000000000000000000000000000000000000000000000000000000000000000000000000000000000000000000000000000000000000000000000000000000000000000000000000000000000000000000000000000000000000000000
0000015978624M   PILOT KNOB MUD NO 3                                                   0000000091877760000000173121650000000919215840000000006807230000000000000000000000000000000000000000000000000000000000000000001161041760000000000000000000000006400990000000000000000000001191022480000000006630000000000090000000000000000000000000000000006720000001197423470000000000280000000005860130000000000000000000000000000000000000000000000000000000000000000000000000000000000000000000000000000000000050000000000340000000000000000000000000000000000000000000000000000000000000000000000000000000000000000000000000000000000000000000000000000000000000000000000000000050000000000451720000000000000000000000000000000000000000000000000000000000000000000000000000000000000000000000000000000000000000000000000000000000000002019000000000015000000000000000000000000000000000000000000000000000000000000000000000000000000000000000000000000000000000000000000000000000000000000000000000000000000000000000000000000000000000000000000007642000000000000000000000000000000000000000000000000000000000000000000000000000000000000000000004000000001342874000000000000000000000000000000000000000000000000000000000000000000000000000000000000000000000000000000000000000000000000000000000000000000000000000000000000000000000000000000000000000000000000000000000000000000000000000000000000000000000000000000000000000000000000000000000002000000000316513000000000000000000000000000000000000000000000000000000000000000000000000000000000000000000000000000000000000000000000000000000000000000000000000000000000000000000000000000000000000000000000000000000000000000000000000000000000000000000000000000000000000000000000000000000000000000019000000001313599000000000000000000000000000000000000000000000000000000000000000000000000000000000000000000000000000000000000000000000000000000000000000000000000000000000000000000000000000000000000000000000000000000000000000000000000000000000000000000000000000
0000015978644N   PILOT KNOB MUD NO 4                                                   0000000000010540000000002130310000000001049580000000000084300000000000298860000000000000000000000015804790000000000000000000000003573590000000000000000000000000000000000000000000000000000019079520000000000200000000000000000000000000000000000000000000000200000000019079520000000000000000000000000000000000000000000000000000000000000000000000000000000000000000000000000000000000000000000000000000000000000000000000000000000000000000000000000000000000000000000000000000000000000000000000000000000000000000000000000000000000000000000000000000000000000000000000000000000000000000000000000000000000000000000000000000000000000000000000000000000000000000000000000000000000000000000000000000000000000000000000000000000000000002019000000000015000000000000000000000000000000000000029886000000000000000000000001580479000000000000000000000000000000000000000000000000000000000000000000000000000000000000000000000000000000000000000000007642000000000000000000000000000000000000000000000000000000000000000000000000000000000000000000000000000000000000000000000000000000000000000000000000000000000000000000000000000000000000000000000000000000000000000000000000000000000000000000000000000000000000000000000000000000000000000000000000000000000000000000000000000000000000000000000000000000000000000000000000000000000000000000000000000000000000000000000000000000000000000000000000000000000000000000000000000000000000000000000000000000000000000000000000000000000000000000000000000000000000000000000000000000000000000000000000000000000000000000000000000000000000000000000000000000000000000000000000000000000000000000000000000000000000000000000000000000000000000000000000000000000000000000000000000000000000000000000000000000000000000000000000000000000000000000000000000000000000000000000000000000000000000000000000000000000000000000000000000000000000000000000000000000000000000000000000000
000001599645LSRD LONE STAR RAIL DISTRICT                                               0000000246468580000015459692660000002945150010000041680397800000000000378010000000000000000000000082161420000000000000000000057400271100000000000000000000000000043500000000000000000000060413870470000000014600000000000020000000000000000000000000000000014620000060413913970000000000850000000031981170000000000000000000000000000000000000000000000000000000000000000000000000000000000000000000000000000000000030000000000245000000000000000000000000000000000000000000000000000000000000000000000000000000000000000000000000000000000000000000000000000000000000000000000000000000000000000000000000000000000000000000000000000000000000000000000000000000000000000000000000000000000000000000000000000000000000000000000000000000000002019000000000015000000000000000000000000000000000000037801000000000000000000000008216142000000000000000000000000000000000000000000000000000000000000000000000000000000000000000000000000000000000000000000007642000000000000000000000000000000000000000000000000000000000000000000000000000000000000000000000000000000000000000000000000000000000000000000000000000000000000000000000000000000000000000000000000000000000000000000000000000000000000000000000000000000000000000000000000000000000000000000000000000000000000001000000005056772000000000000000000000000000000000000001000000030954043000000000000000000000000000000000000000000000000000000000000000000000000000000000000000000000000000000000000000000000000000000000000000000000000000000000000000000000000000000000000000000000000000000000000000000000000000000000000000000000000000000000000000000000000000000000000000000000000000000000000000000028000000253952514000000000000000000000000000000000000000000000000000000000000000000000000000000000000000000000000000000000000000000000000000000000000000000000000000000000000000000000000000000000000000000000000000000000000000000000000000000000000000000000000000
00000000100607   LAKE TRAVIS ISD                                                       0000027388514650000020329017970000090727904580000021453326850000000016862950000000000000000000002937989610000000000000000000130020270190000000000000000000003197418510000000000000000000162836753660000000310580000000024840000000000000000000000000000000335420000166034172170000000044990000002705969520000000171520000018273034870000004126200710000000055710000000531780060000000001970000000017061260000000003570000000032241660000000000000000000000000000000000000000000000000000000000000000030000000000506480000000001010000000000290280000000000000000000000000000000000003350000000040800010000000000000000000000000000000000000000000000000000000000000000020000000012853600000000000000000000000000000000000000020000000000220252019000000000015000000000000000000000000000000000001678940000000000007355000000291703543000000002095418000000000000000000000000000000000000000000000000000000000000000000000000000000000000000000000000000007642000000000000000000000000000000000000000000000000000000000000000000000000000000000000000000150000000063942719000000000000000000000000000000000000000000000000000000847908000000000000000000000000000000000000000000000000000012000000005358565000000000000000000000000000000000000000000000000000000000000000000000000000000000000000000000000000000000000000000000003000000027795091000000000004000000005596044000000000000000000000000000000000000000000000000000000000000000000000000000000000000000000001000000000035532000000000000000000000000000000000000000000000000000000000000000000000000000000000000000000000000000000000000000000000000000000000000000000000000000000000000000000000000000576000000634939777000000000000000000000000000000000000000000000000000000000000000000000000000000000000000000000000000000000000000000000002000000000887357000000000000000000000000000000000000000000000000000000000000000000000000000000000000000000000000000000000000
00000000100708   EANES ISD                                                             0000060288772480000020355498080000066313740000000035612105480000000001838950000000000000000000001524096470000000000000000000170681583870000000000000000000004470346800000000000000000000184094212510000000139170000000034430000000000000000000000000000000173600000188564559310000000043090000005147763950000000099920000000000000000000002465582810000000032560000000955869360000000000480000000014100000000000001190000000010985000000000000000000000000000000000000000000000000000000000000000000030000000000676450000000002210000000000750980000000000000000000000000000000000002870000000032027510000000000000000000000000000000000000000000000000000000000000000000000000000000000000000000000000000000000000000000000020000000000407132019000000000015000000000000000000000000000000000000182573000000000001322000000151630547000000000779100000000000000000000000000000000000000000000000000000000000000000000000000000000000000000000000000000007642000000000000000000000000000000000000000000000000000000000000000000000000000000000000000000033000000021790080000000000000000000000000000000000000000000000000000000000000000000000000000000000000000000000000000000000000000003000000002240678000000000000000000000000000000000000000000000000000000000000000000000000000000000000000000000000000000000000000000000000000000000000000000000000009000000033307626000000000000000000000000000000000000000000000000000000000000000000000000000000000000000000000000000000000000000000000000000000000000000000000000000000000000000000000000000003000000001821712000000000000000000000000000000000000000000000000000000000000000000000000000000000000000000288000000714873155000000000000000000000000000000000000000000000000000000000000000000000000000000000000000000000000000000000000000000000000000000000000000000000000000000000000000000000000000000000000000000000000000000000000000000000000000000000000000000000000000
00000000100809   CITY OF WEST LAKE HILLS                                               0000008976329180000003807654760000008395415190000004167281570000000000034480000000000000000000000148768200000000000000000000023060349690000000000000000000000668967570000000000000000000025495448900000000016940000000010420000000000000000000000000000000027360000026164416470000000006660000001139001680000000000000000000000000000000000000000000000000004630000000018170000000000000000000000000000000000000000110000000000895000000000000000000000000000000000000000000000000000000000000000000010000000000269390000000000900000000000317830000000000000000000000000000000000000310000000003654690000000000000000000000000000000000000000000000000000000000000000000000000000000000000000000000000000000000000000000000020000000000407132019000000000015000000000000000000000000000000000000003448000000000000000000000014876820000000000000000000000000000000000000000000000000000000000000000000000000000000000000000000000000000000000000000000007642000000000000000000000000000000000000000000000000000000000000000000000000000000000000000000003000000001923230000000000000000000000000000000000000000000000000000000000000000000000000000000000000000000000000000000000000000000000000000000000000000000000000000000000000000000000000000000000000000000000000000000000000000000000000000000000000000000000000000000000000000000000000000000000004000000028059377000000000000000000000000000000000000000000000000000000000000000000000000000000000000000000000000000000000000000000000000000000000000000000000000000000000000000000000000000000000000000000000000000000000000000000000000000000000000000000000000000000000000000000000000000000000000000070000000149279127000000000000000000000000000000000000000000000000000000000000000000000000000000000000000000000000000000000000000000000000000000000000000000000000000000000000000000000000000000000000000000000000000000000000000000000000000000000000000000000000000
0000000010091A   HAYS CONSOLIDATED ISD                                                 0000000023224980000000025428800000000044849820000000008382120000000004663730000000000000000000000187560540000000000000000000000116816920000000000000000000000018265010000000000000000000000289446260000000001050000000000210000000000000000000000000000000001260000000307711270000000000040000000003413390000000000160000000000000000000000003750000000000000060000000000600000000000000000000000000000000000000000010000000000120000000000000000000000000000000000000000000000000000000000000000000000000000000000000000000000010000000000002040000000000000000000000000000000000000000000000000000000000000000000000000000000000000000000000000000000000000000000000000000000000000000000000000000000000000000000000000000000000000000000002019000000000015000000000000000000000000000000000000455162000000000011211000000018429833000000000326221000000000000000000000000000000000000000000000000000000000000000000000000000000000000000000000000000007642000000000000000000000000000000000000000000000000000000000000000000000000000000000000000000000000000000000000000000000000000000000000000000000000000000000000000000000000000000000000000000000000000000000000000000000000000000000000000000000000000000000000000000000000000000000000000000000000000000000000000000000000000000000000000000000000000000000000000000000000000000000000000000000000000000000000000000000000000000000000000000000000000000000000000000000000000000000000000000000000000000000000000000000000000000000000000000000000000000000000000000000000000000000000000000000000000000000000000000000000000000000000000000000000000000000000000000000000000000000000000000000000000000001000000000326221000000000000000000000000000000000000000000000000000000000000000000000000000000000000000000000000000000000000000000000000000000000000000000000000000000000000000000000000000000000000000000000000000000000000000000000000000000000000000000000000000
0000016042424P   PILOT KNOB MUD NO 2                                                   0000000000043470000000025634630000000000013610000000000543920000000000000000000000000000000000000000000000000000000000000000000028527610000000000000000000000002291980000000000000000000000026235630000000000170000000000030000000000000000000000000000000000200000000028527610000000000000000000000000000000000000000000000000000000000000000000000000000000000000000000000000000000000000000000000000000000000000000000000000000000000000000000000000000000000000000000000000000000000000000000000000000000000000000000000000000000000000000000000000000000000000000000000000000000000000000000000000000000000000000000000000000000000000000000000000000000000000000000000000000000000000000000000000000000000000000000000000000000000000002019000000000015000000000000000000000000000000000000000000000000000000000000000000000000000000000000000000000000000000000000000000000000000000000000000000000000000000000000000000000000000000000000000000007642000000000000000000000000000000000000000000000000000000000000000000000000000000000000000000000000000000000000000000000000000000000000000000000000000000000000000000000000000000000000000000000000000000000000000000000000000000000000000000000000000000000000000000000000000000000000000000000000000000000000000000000000000000000000000000000000000000000000000000000000000000000000000000000000000000000000000000000000000000000000000000000000000000000000000000000000000000000000000000000000000000000000000000000000000000000000000000000000000000000000000000000000000000000000000000000000000000000000000000000000000000000000000000000000000000000000000000000000000000000000000000000000000000000000000000000000000000000000000000000000000000000000000000000000000000000000000000000000000000000000000000000000000000000000000000000000000000000000000000000000000000000000000000000000000000000000000000000000000000000000000000000000000000000000000000000000000
000001607163SH   SEAHOLM TIF                                                           0000000155086790000000439868760000001675301190000001933558460000000000000000000000000000000000000000000000000000000000000000003972342930000000000000000000000000000000000000000000000000004203815200000000002860000000000000000000000000000000000000000000002860000004203815200000000000340000000052408720000000000000000000000000000000000000000000000000000000000000000000000000000000000000000000000000000000000000000000000000000000000000000000000000000000000000000000000000000000000000000000000000000000000000000000000000000000000000000000000000000000000000000000000000000000000000000000000000000000000000000000000000000000000000000000000000000000000000000000000000000000000000000000000000000000000000000000000000000000000002019000000000015000000000000000000000000000000000000000000000000000000000000000000000000000000000000000000000000000000000000000000000000000000000000000000000000000000000000000000000000000000000000000000007642000000000000000000000000000000000000000000000000000000000000000000000000000000000000000000000000000000000000000000000000000000000000000000000000000000000000000000000000000000000000000000000000000000000000000000000000000000000000000000000000000000000000000000000000000000000000000000000000000000000000000000000000000000000000000000000000000000000000000000000000000000000000000000000000000000000000000000000000000000000000000000000000000000000000000000000000000000000000000000000000000000000000000000000000000000000000000000000000000000000000000000000000000000000000000000000000000000000000000000000000000000000000000000000000000000000000000000000000000000000000000000000000000000004000000017906355000000000000000000000000000000000000000000000000000000000000000000000000000000000000000000000000000000000000000000000000000000000000000000000000000000000000000000000000000000000000000000000000000000000000000000000000000000000000000000000000000
000001607164WV   WHISPER VALLEY PID                                                    0000000057840000000000071632330000000189734770000000000115460000000001640440000000000000000000000250018450000000000000000000000316906080000000000000000000000000000000000000000000000000000569341010000000002650000000000000000000000000000000000000000000002650000000569341010000000000000000000000000000000000000000000000000000000000000000000000000000000000000000000000000000000000000000000000000000000000000010000000000120000000000000000000000000000000000000000000000000000000000000000000000000000000000000000000000000000000000000000000000000000000000000000000000000000490000000003936920000000000000000000000000000000000000000000000000000000000000000000000000000000000000000000000000000000000000000000000000000000000000002019000000000015000000000000000000000000000000000000164044000000000000000000000025001845000000000000000000000000000000000000000000000000000000000000000000000000000000000000000000000000000000000000000000007642000000000000000000000000000000000000000000000000000000000000000000000000000000000000000000000000000000000000000000000000000000000000000000000000000000000000000000000000000000000000000000000000000000000000000000000000000000000000000000000000000000000000000000000000000000000000000000000000000000000000000000000000000000000000000000000000000000000000000000000000000000000000000000000000000000000000000000000000000000000000000000000000000000000000000000000000000000000000000000000000000000000000000000000000000000000000000000000000000000000000000000000000000000000000000000000000000000000000000000000000000000000000000000000000000000000000000000000000000000000000000000000000000000000000000000000000000000000000000000000000000000000000000000000000000000000000000000000000000000000000000000000000000000000000000000000000000000000000000000000000000000000000000000000000000000000000000000000000000000000000000000000000000000000000000000000000000
000001607165IH   INDIAN HILLS PID                                                      0000000000000000000000001714240000000000000000000000000000000000000000200110000000000000000000000011253710000000000000000000000001914350000000000000000000000000000000000000000000000000000012967950000000000040000000000000000000000000000000000000000000000040000000012967950000000000000000000000000000000000000000000000000000000000000000000000000000000000000000000000000000000000000000000000000000000000000000000000000000000000000000000000000000000000000000000000000000000000000000000000000000000000000000000000000000000000000000000000000000000000000000000000000000000000000000000000000000000000000000000000000000000000000000000000000000000000000000000000000000000000000000000000000000000000000000000000000000000000000002019000000000015000000000000000000000000000000000000020011000000000000000000000001125371000000000000000000000000000000000000000000000000000000000000000000000000000000000000000000000000000000000000000000007642000000000000000000000000000000000000000000000000000000000000000000000000000000000000000000000000000000000000000000000000000000000000000000000000000000000000000000000000000000000000000000000000000000000000000000000000000000000000000000000000000000000000000000000000000000000000000000000000000000000000000000000000000000000000000000000000000000000000000000000000000000000000000000000000000000000000000000000000000000000000000000000000000000000000000000000000000000000000000000000000000000000000000000000000000000000000000000000000000000000000000000000000000000000000000000000000000000000000000000000000000000000000000000000000000000000000000000000000000000000000000000000000000000000000000000000000000000000000000000000000000000000000000000000000000000000000000000000000000000000000000000000000000000000000000000000000000000000000000000000000000000000000000000000000000000000000000000000000000000000000000000000000000000000000000000000000000
0000000010101B   TRAVIS CO ESD NO 7                                                    0000004509936830000004579093280000018069986570000002276151370000000018704190000000000000000000002602572080000000000000000000027839721520000000000000000000000434630470000000000000000000032037740130000000199380000000004940000000000000000000000000000000204320000032472370600000000016870000000663439770000000000000000000000000000000000000000000000000000000000000000000000000000000000000000000000000000000002020000000018008500000000000000000000000000000000000000010000000008332550000000000010000000000162330000000000290000000000073280000000000000000000000000000000000000530000000008426570000000000000000000000000000000000000000000000000000000000000000000000000000000000000000000000000000000000000000000000000000000000000002019000000000015000000000000000000000000000000000001864021000000000006398000000257707280000000002549928000000000000000000000000000000000000000000000000000000000000000000000000000000000000000000000000000007642000000000000000000000000000000000000000000000000000000000000000000000000000000000000000000075000000021422375000000000000000000000000000000000000000000000000000000000000000000000000000000000000000000000000000000000000000011000000003434055000000000000000000000000000000000000000000000000000000000000000000000000000000000000000000000000000000000000000000000000000000000000000000000000001000000000807978000000000000000000000000000000000000000000000000000000000000000000000000000000000000000000000000000000000000000000000000000000000000000000000000000000000000000000000000000019000000000462489000000000000000000000000000000000000000000000000000000000000000000000000000000000000000000567000000110915655000000000000000000000000000000000000000000000000000000000000000001000000000285321000000000000000000000000000000000000001000000000243476000000000000000000000000000000000000000000000000000000000000000000000000000000000000000000000000000000000000
0000000010111C   TRAVIS CO ESD NO 3                                                    0000008728832320000002530201860000020370385410000005257220530000000008491210000000000000000000001256731700000000000000000000035054232730000000000000000000000482084200000000000000000000038143371820000000056230000000004190000000000000000000000000000000060420000038625456020000000013570000000973066700000000000000000000000000000000000000000000000000000000000000000000000000000000000000000000000000000000000830000000007681940000000000000000000000000000000000000010000000011878530000000000010000000000087920000000000120000000000033140000000000000000000000000000000000000360000000005577270000000000000000000000000000000000000000000000000000000000000000000000000000000000000000000000000000000000000000000000000000000000000002019000000000015000000000000000000000000000000000000848404000000000000717000000125571718000000000101452000000000000000000000000000000000000000000000000000000000000000000000000000000000000000000000000000007642000000000000000000000000000000000000000000000000000000000000000000000000000000000000000000016000000008524800000000000000000000000000000000000000000000000000000000000000000000000000000000000000000000000000000000000000000006000000003663682000000000000000000000000000000000000000000000000000000000000000000000000000000000000000000000000000000000000000000000001000000000339594000000000006000000005438493000000000000000000000000000000000000000000000000000000000000000000000000000000000000000000000000000000000000000000000000000000000000000000000000000000000000000000000000000001000000000140680000000000000000000000000000000000000000000000000000000000000000003000000000189905000000000197000000114269311000000000000000000000000000000000000000000000000000000000000000000000000000000000000000000000000000000000000000000000000000000000000000000000000000000000000000000000000000000000000000000000000000000000000000000000000000000000000000000000000000
0000000010121D   TRAVIS CO MUD NO 5                                                    0000000887113210000000173474000000001963072770000000050101910000000000000000000000000000000000000000000000000000000000000000003039217740000000000000000000000004162110000000000000000000003073761890000000002540000000000110000000000000000000000000000000002650000003077924000000000000180000000016701810000000000000000000000000000000000000000000000000000000000000000000000000000000000000000000000000000000000000000000000000000000000000000000000000000000000000000000000000000000000000000000000000000000000000000000000000000000000000000000000000000000000000000000000000000010000000000272950000000000000000000000000000000000000000000000000000000000000000000000000000000000000000000000000000000000000000000000000000000000000002019000000000015000000000000000000000000000000000000000000000000000000000000000000000000000000000000000000000000000000000000000000000000000000000000000000000000000000000000000000000000000000000000000000007642000000000000000000000000000000000000000000000000000000000000000000000000000000000000000000000000000000000000000000000000000000000000000000000000000000000000000000000000000000000000000000000000000000000000000000000000000000000000000000000000000000000000000000000000000000000000000000000000000000000000000000000000000000000000000000000000000000000000000000000000000000000000000000000000000000000000000000000000000000000000000000000000000000000000000000000000000000000000000000000000000000000000000000000000000000000000000000000000000000000000000000000000000000000000000000000000000000000000000000000000000000000000000000000000000000000000000000000000000000000000000000000000000000002000000002173150000000000000000000000000000000000000000000000000000000000000000000000000000000000000000000000000000000000000000000000000000000000000000000000000000000000000000000000000000000000000000000000000000000000000000000000000000000000000000000000000000
0000000010131F   TANGLEWD FOREST LTD DIST                                              0000001014067920000000813022460000001316918170000001791533920000000000000000000000000000000000000000000000000000000000000000004496470510000000000000000000000106923930000000000000000000004935542470000000012990000000000760000000000000000000000000000000013750000005042466400000000003290000000076578530000000006470000000170502600000000000000000000000002040000000097089910000000000150000000001950000000000000290000000002340000000000000000000000000000000000000000000000000000000000000000000000000000000000000000000000020000000000006920000000000000000000000000000000000000020000000000253310000000000000000000000000000000000000000000000000000000000000000000000000000000000000000000000000000000000000000000000000000000000000002019000000000015000000000000000000000000000000000000000000000000000000000000000000000000000000000000000000000000000000000000000000000000000000000000000000000000000000000000000000000000000000000000000000007642000000000000000000000000000000000000002000000000376125000000000000000000000000000000000000011000000002775492000000000000000000000000000000000000000000000000000000000000000000000000000000000000000000000000000000000000000001000000000263235000000000000000000000000000000000000000000000000000000000000000000000000000000000000000000000000000000000000000000000000000000000000000000000000000000000000000000000000000000000000000000000000000000000000000000000000000000000000000000000000000000000000000000000000000000000000000000000000000000000000000000000000000000000000000000000000000000000000000000000000000000000000000000000000000000000000000000000000000000000000000000000000000000000030000000016312610000000000000000000000000000000000000000000000000000000000000000000000000000000000000000000000000000000000000000000000000000000000000000000000000000000000000000000000000000000000000000000000000000000000000000000000000000000000000000000000000000
0000016359771P   TRAVIS CO IMPROVEMENT DIST NO 1                                       0000000000589050000000100972510000000000000000000000004600950000000000572200000000000000000000000077919560000000000000000000000106734710000000000000000000000000000000000000000000000000000184082070000000000140000000000000000000000000000000000000000000000140000000184082070000000000000000000000000000000000000000000000000000000000000000000000000000000000000000000000000000000000000000000000000000000000000000000000000000000000000000000000000000000000000000000000000000000000000000000000000000000000000000000000000000000000000000000000000000000000000000000000000000000000000000000000000000000000000000000000000000000000000000000000000000000000000000000000000000000000000000000000000000000000000000000000000000000000000002019000000000015000000000000000000000000000000000000057220000000000000000000000007791956000000000000000000000000000000000000000000000000000000000000000000000000000000000000000000000000000000000000000000007642000000000000000000000000000000000000000000000000000000000000000000000000000000000000000000000000000000000000000000000000000000000000000000000000000000000000000000000000000000000000000000000000000000000000000000000000000000000000000000000000000000000000000000000000000000000000000000000000000000000000000000000000000000000000000000000000000000000000000000000000000000000000000000000000000000000000000000000000000000000000000000000000000000000000000000000000000000000000000000000000000000000000000000000000000000000000000000000000000000000000000000000000000000000000000000000000000000000000000000000000000000000000000000000000000000000000000000000000000000000000000000000000000000000000000000000000000000000000000000000000000000000000000000000000000000000000000000000000000000000000000000000000000000000000000000000000000000000000000000000000000000000000000000000000000000000000000000000000000000000000000000000000000000000000000000000000000
0000016360204R   PILOT KNOB MUD NO 5                                                   0000000000131620000000006304550000000002317890000000000187330000000000156800000000000000000000000009618210000000000000000000000009098190000000000000000000000000000000000000000000000000000018559600000000000120000000000000000000000000000000000000000000000120000000018559600000000000000000000000000000000000000000000000000000000000000000000000000000000000000000000000000000000000000000000000000000000000000000000000000000000000000000000000000000000000000000000000000000000000000000000000000000000000000000000000000000000000000000000000000000000000000000000000000000000000000000000000000000000000000000000000000000000000000000000000000000000000000000000000000000000000000000000000000000000000000000000000000000000000000002019000000000015000000000000000000000000000000000000015680000000000000000000000000961821000000000000000000000000000000000000000000000000000000000000000000000000000000000000000000000000000000000000000000007642000000000000000000000000000000000000000000000000000000000000000000000000000000000000000000000000000000000000000000000000000000000000000000000000000000000000000000000000000000000000000000000000000000000000000000000000000000000000000000000000000000000000000000000000000000000000000000000000000000000000000000000000000000000000000000000000000000000000000000000000000000000000000000000000000000000000000000000000000000000000000000000000000000000000000000000000000000000000000000000000000000000000000000000000000000000000000000000000000000000000000000000000000000000000000000000000000000000000000000000000000000000000000000000000000000000000000000000000000000000000000000000000000000000000000000000000000000000000000000000000000000000000000000000000000000000000000000000000000000000000000000000000000000000000000000000000000000000000000000000000000000000000000000000000000000000000000000000000000000000000000000000000000000000000000000000000000
00000163602642   CASCADES MUD NO 1                                                     0000000000000000000000019292970000000000000000000000000040000000000000000000000000000000000000000000000000000000000000000000000008941300000000000000000000000000000000000000000000000000000019332970000000000060000000000000000000000000000000000000000000000060000000019332970000000000000000000000000000000000000000000000000000000000000000000000000000000000000000000000000000000000000000000000000000000000000000000000000000000000000000000000000000000000000000000000000000000000000000000000000000000000000000000000000000000000000000000000000000000000000000000000000000000000000000000000000000000000000000000000000000000000000000000000000000000000000000000000000000000000000000000000000000000000000000000000000000000000000002019000000000015000000000000000000000000000000000000000000000000000000000000000000000000000000000000000000000000000000000000000000000000000000000000000000000000000000000000000000000000000000000000000000007642000000000000000000000000000000000000000000000000000000000000000000000000000000000000000000000000000000000000000000000000000000000000000000000000000000000000000000000000000000000000000000000000000000000000000000000000000000000000000000000000000000000000000000000000000000000000000000000000000000000000000000000000000000000000000000000000000000000000000000000000000000000000000000000000000000000000000000000000000000000000000000000000000000000000000000000000000000000000000000000000000000000000000000000000000000000000000000000000000000000000000000000000000000000000000000000000000000000000000000000000000000000000000000000000000000000000000000000000000000000000000000000000000000002000000001039167000000000000000000000000000000000000000000000000000000000000000000000000000000000000000000000000000000000000000000000000000000000000000000000000000000000000000000000000000000000000000000000000000000000000000000000000000000000000000000000000000
0000016360279P   SOUTHEAST TRAVIS COUNTY MUD NO 3                                      0000000000678000000000000000000000000000171600000000000000000000000000260340000000000000000000000033071560000000000000000000000001172240000000000000000000000000062300000000000000000000000033921160000000000020000000000010000000000000000000000000000000000030000000033983460000000000000000000000000000000000000000000000000000000000000000000000000000000000000000000000000000000000000000000000000000000000000000000000000000000000000000000000000000000000000000000000000000000000000000000000000000000000000000000000000000000000000000000000000000000000000000000000000000000000000000000000000000000000000000000000000000000000000000000000000000000000000000000000000000000000000000000000000000000000000000000000000000000000000002019000000000015000000000000000000000000000000000000026034000000000000000000000003307156000000000000000000000000000000000000000000000000000000000000000000000000000000000000000000000000000000000000000000007642000000000000000000000000000000000000000000000000000000000000000000000000000000000000000000000000000000000000000000000000000000000000000000000000000000000000000000000000000000000000000000000000000000000000000000000000000000000000000000000000000000000000000000000000000000000000000000000000000000000000000000000000000000000000000000000000000000000000000000000000000000000000000000000000000000000000000000000000000000000000000000000000000000000000000000000000000000000000000000000000000000000000000000000000000000000000000000000000000000000000000000000000000000000000000000000000000000000000000000000000000000000000000000000000000000000000000000000000000000000000000000000000000000000000000000000000000000000000000000000000000000000000000000000000000000000000000000000000000000000000000000000000000000000000000000000000000000000000000000000000000000000000000000000000000000000000000000000000000000000000000000000000000000000000000000000000000
0000016360289R   SOUTHEAST TRAVIS COUNTY MUD NO 4                                      0000000000000000000000000000000000000000000000000000000000000000000000322440000000000000000000000022803440000000000000000000000000322440000000000000000000000000000000000000000000000000000022803440000000000020000000000000000000000000000000000000000000000020000000022803440000000000000000000000000000000000000000000000000000000000000000000000000000000000000000000000000000000000000000000000000000000000000000000000000000000000000000000000000000000000000000000000000000000000000000000000000000000000000000000000000000000000000000000000000000000000000000000000000000000000000000000000000000000000000000000000000000000000000000000000000000000000000000000000000000000000000000000000000000000000000000000000000000000000000002019000000000015000000000000000000000000000000000000032244000000000000000000000002280344000000000000000000000000000000000000000000000000000000000000000000000000000000000000000000000000000000000000000000007642000000000000000000000000000000000000000000000000000000000000000000000000000000000000000000000000000000000000000000000000000000000000000000000000000000000000000000000000000000000000000000000000000000000000000000000000000000000000000000000000000000000000000000000000000000000000000000000000000000000000000000000000000000000000000000000000000000000000000000000000000000000000000000000000000000000000000000000000000000000000000000000000000000000000000000000000000000000000000000000000000000000000000000000000000000000000000000000000000000000000000000000000000000000000000000000000000000000000000000000000000000000000000000000000000000000000000000000000000000000000000000000000000000000000000000000000000000000000000000000000000000000000000000000000000000000000000000000000000000000000000000000000000000000000000000000000000000000000000000000000000000000000000000000000000000000000000000000000000000000000000000000000000000000000000000000000000
00000163625673   ONION CREEK METRO PARK DIST                                           0000000091908480000000094372470000000418749990000000205919790000000000374590000000000000000000000021589520000000000000000000000565852900000000000000000000000000990680000000000000000000000832540250000000003950000000000030000000000000000000000000000000003980000000833530930000000000120000000001364960000000000000000000000000000000000000000000000000000000000000000000000000000000000000000000000000000000000050000000000350000000000000000000000000000000000000000000000000000000000000000000000000000000000000000000000000000000000000000000000000000000000000000000000000000010000000000157340000000000000000000000000000000000000000000000000000000000000000000000000000000000000000000000000000000000000000000000000000000000000002019000000000015000000000000000000000000000000000000037459000000000000000000000002158952000000000000000000000000000000000000000000000000000000000000000000000000000000000000000000000000000000000000000000007642000000000000000000000000000000000000000000000000000000000000000000000000000000000000000000003000000000985228000000000000000000000000000000000000000000000000000000000000000000000000000000000000000000000000000000000000000000000000000000000000000000000000000000000000000000000000000000000000000000000000000000000000000000000000000000000000000000000000000000000000000000000000000000000000000000000000000000000000000000000000000000000000000000000000000000000000000000000000000000000000000000000000000000000000000000000000000000000000000000000000000000000000000000000000000000000000000000000000000000000000000000000000000000000000000000000000000000000000000000000000000000000000000000015000000023473852000000000000000000000000000000000000000000000000000000000000000000000000000000000000000000000000000000000000000000000000000000000000000000000000000000000000000000000000000000000000000000000000000000000000000000000000000000000000000000000000000
0000016714802P   ESTANCIA HILL COUNTRY PID                                             0000000181431710000000155160700000000610952100000000460033700000000000484860000000000000000000000077396640000000000000000000001363092550000000000000000000000000144000000000000000000000001484974850000000003230000000000010000000000000000000000000000000003240000001485118850000000000010000000000756180000000000000000000000000000000000000000000000000000000000000000000000000000000000000000000000000000000000030000000000120000000000000000000000000000000000000000000000000000000000000000000000000000000000000000000000000000000000000000000000000000000000000000000000000000000000000000000000000000000000000000000000000000000000000000000000000000000000000000000000000000000000000000000000000000000000000000000000000000000000002019000000000015000000000000000000000000000000000000048486000000000000000000000007739664000000000000000000000000000000000000000000000000000000000000000000000000000000000000000000000000000000000000000000007642000000000000000000000000000000000000000000000000000000000000000000000000000000000000000000009000000003433092000000000000000000000000000000000000000000000000000000000000000000000000000000000000000000000000000000000000000003000000000990742000000000000000000000000000000000000000000000000000000000000000000000000000000000000000000000000000000000000000000000000000000000000000000000000000000000000000000000000000000000000000000000000000000000000000000000000000000000000000000000000000000000000000000000000000000000000000000000000000000000000000000000000000000000000000000000000000000000000000000000000000000000000000000000000000000000000000000000000000000000000000000000000000000000000000000000000000000000000000000000000000000000000000000000000000000000000000000000000000000000000000000000000000000000000000000000000000000000000000000000000000000000000000000000000000000000000000000000000000000000000000000000000000000000000000000000000000000
0000016724233P   PILOT KNOB MUD NO 1                                                   0000000000000000000000005889010000000000000000000000000393620000000000486320000000000000000000000010581500000000000000000000000006768950000000000000000000000000000000000000000000000000000016864130000000000120000000000000000000000000000000000000000000000120000000016864130000000000000000000000000000000000000000000000000000000000000000000000000000000000000000000000000000000000000000000000000000000000000000000000000000000000000000000000000000000000000000000000000000000000000000000000000000000000000000000000000000000000000000000000000000000000000000000000000000000000000000000000000000000000000000000000000000000000000000000000000000000000000000000000000000000000000000000000000000000000000000000000000000000000000002019000000000015000000000000000000000000000000000000048632000000000000000000000001058150000000000000000000000000000000000000000000000000000000000000000000000000000000000000000000000000000000000000000000007642000000000000000000000000000000000000000000000000000000000000000000000000000000000000000000000000000000000000000000000000000000000000000000000000000000000000000000000000000000000000000000000000000000000000000000000000000000000000000000000000000000000000000000000000000000000000000000000000000000000000000000000000000000000000000000000000000000000000000000000000000000000000000000000000000000000000000000000000000000000000000000000000000000000000000000000000000000000000000000000000000000000000000000000000000000000000000000000000000000000000000000000000000000000000000000000000000000000000000000000000000000000000000000000000000000000000000000000000000000000000000000000000000000000000000000000000000000000000000000000000000000000000000000000000000000000000000000000000000000000000000000000000000000000000000000000000000000000000000000000000000000000000000000000000000000000000000000000000000000000000000000000000000000000000000000000000000
0000000010141G   TRAVIS CO BCCP                                                        0000019364013620000010488932910000066575517640000024237125050000000002241930000000000000000000001574412310000000000000000000099960280990000000000000000000000005283890000000000000000000122240001530000000166460000000000060000000000000000000000000000000166520000122245285420000000013830000000836512980000000103170000014009045780000000000000000000000018580000001175505000000000000600000000036400000000000001790000000015450000000000000000000000000000000000000000000000000000000000000000000000000000000000000000000000000000000000000000000000000000000000000000000000000002380000000027952350000000000000000000000000000000000000000000000000000000000000000000000000000000000000000000000000000000000000000000000000000000000000002019000000000015000000000000000000000000000000000000189900000000000034293000000149466948000000007974283000000000000000000000000000000000000000000000000000000000000000000000000000000000000000000000000000007642000000000000000000000000000000000000001000000002540000000000000000000000000000000000000000072000000034342959000000000000000000000000000000000000000000000000000000000000000000000000000000000000000000000000000000000000000007000000003129752000000000000000000000000000000000000000000000000000000000000000000000000000000000000000000000000000000000000000000000001000000027342600000000000001000000036823761000000000000000000000000000000000000000000000000000000000000000000000000000000000000000000000000000000000000000000000000000000000000000000000000000000000000000000000000000001000000000110000000000000000000000000000000000000000000000000000000000000000000000000000000000000000000000256000000364268912000000000000000000000000000000000000000000000000000000000000000000000000000000000000000000000000000000000000000000000001000000000578800000000000000000000000000000000000000000000000000000000000000000000000000000000000000000000000000000000000000
0000000010151H   COTTONWD CREEK MUD NO 1                                               0000000237206910000000129483390000001781155050000000184296500000000000000000000000000000000000000000000000000000000000000000002088468210000000000000000000000004792700000000000000000000002332141850000000013370000000000160000000000000000000000000000000013530000002336934550000000002100000000048205500000000000000000000000000000000000000000000000000000640000000003125000000000000190000000000900000000000000280000000002425000000000000000000000000000000000000000000000000000000000000000000000000000000000000000000000000000000000000000000000000000000000000000000000000000050000000000436530000000000000000000000000000000000000000000000000000000000000000000000000000000000000000000000000000000000000000000000000000000000000002019000000000015000000000000000000000000000000000000000000000000000000000000000000000000000000000000000000000000000000000000000000000000000000000000000000000000000000000000000000000000000000000000000000007642000000000000000000000000000000000000000000000000000000000000000000000000000000000000000000010000000002156155000000000000000000000000000000000000000000000000000000000000000000000000000000000000000000000000000000000000000000000000000000000000000000000000000000000000000000000000000000000000000000000000000000000000000000000000000000000000000000000000000000000000000000000000000000000000000000000000000000000000000000000000000000000000000000000000000000000000000000000000000000000000000000000000000000000000000000000000000000000000000000000000000000000000000000000000000000000000000000000000000000000000000000000000000000000000000000000000000000000000000000000000000000000000000000006000000017181276000000000000000000000000000000000000000000000000000000000000000000000000000000000000000000000000000000000000000000000000000000000000000000000000000000000000000000000000000000000000000000000000000000000000000000000000000000000000000000000000000
0000000010161J   CYPRESS RANCH WCID NO 1                                               0000000276327940000000027436000000001482476120000000001627610000000000000000000000000000000000000000000000000000000000000000001773182750000000000000000000000003528100000000000000000000001787867670000000004710000000000100000000000000000000000000000000004810000001791395770000000000030000000000253120000000000000000000000000000000000000000000000000000000000000000000000000000000000000000000000000000000000080000000000825000000000000000000000000000000000000000000000000000000000000000000000000000000000000000000000010000000000003670000000000000000000000000000000000000010000000000077810000000000000000000000000000000000000000000000000000000000000000000000000000000000000000000000000000000000000000000000000000000000000002019000000000015000000000000000000000000000000000000000000000000000000000000000000000000000000000000000000000000000000000000000000000000000000000000000000000000000000000000000000000000000000000000000000007642000000000000000000000000000000000000000000000000000000000000000000000000000000000000000000002000000000907564000000000000000000000000000000000000000000000000000000000000000000000000000000000000000000000000000000000000000000000000000000000000000000000000000000000000000000000000000000000000000000000000000000000000000000000000000000000000000000000000000000000000000000000000000000000000000000000000000000000000000000000000000000000000000000000000000000000000000000000000000000000000000000000000000000000000000000000000000000000000000000000000000000000000000000000000000000000000000000000000000000000000000000000000000000000000000000000000000000000000000000000000000000000000000000031000000000797778000000000000000000000000000000000000000000000000000000000000000000000000000000000000000000000000000000000000000000000000000000000000000000000000000000000000000000000000000000000000000000000000000000000000000000000000000000000000000000000000000
